{
    "_format": "hh-sol-artifact-1",
    "contractName": "BuyMyRoom",
    "sourceName": "contracts/BuyMyRoom.sol",
    "abi": [
        {
            "inputs": [],
            "stateMutability": "nonpayable",
            "type": "constructor"
        },
        {
            "inputs": [
                {
                    "internalType": "address",
                    "name": "sender",
                    "type": "address"
                },
                {
                    "internalType": "uint256",
                    "name": "tokenId",
                    "type": "uint256"
                },
                {
                    "internalType": "address",
                    "name": "owner",
                    "type": "address"
                }
            ],
            "name": "ERC721IncorrectOwner",
            "type": "error"
        },
        {
            "inputs": [
                {
                    "internalType": "address",
                    "name": "operator",
                    "type": "address"
                },
                {
                    "internalType": "uint256",
                    "name": "tokenId",
                    "type": "uint256"
                }
            ],
            "name": "ERC721InsufficientApproval",
            "type": "error"
        },
        {
            "inputs": [
                {
                    "internalType": "address",
                    "name": "approver",
                    "type": "address"
                }
            ],
            "name": "ERC721InvalidApprover",
            "type": "error"
        },
        {
            "inputs": [
                {
                    "internalType": "address",
                    "name": "operator",
                    "type": "address"
                }
            ],
            "name": "ERC721InvalidOperator",
            "type": "error"
        },
        {
            "inputs": [
                {
                    "internalType": "address",
                    "name": "owner",
                    "type": "address"
                }
            ],
            "name": "ERC721InvalidOwner",
            "type": "error"
        },
        {
            "inputs": [
                {
                    "internalType": "address",
                    "name": "receiver",
                    "type": "address"
                }
            ],
            "name": "ERC721InvalidReceiver",
            "type": "error"
        },
        {
            "inputs": [
                {
                    "internalType": "address",
                    "name": "sender",
                    "type": "address"
                }
            ],
            "name": "ERC721InvalidSender",
            "type": "error"
        },
        {
            "inputs": [
                {
                    "internalType": "uint256",
                    "name": "tokenId",
                    "type": "uint256"
                }
            ],
            "name": "ERC721NonexistentToken",
            "type": "error"
        },
        {
            "anonymous": false,
            "inputs": [
                {
                    "indexed": true,
                    "internalType": "address",
                    "name": "owner",
                    "type": "address"
                },
                {
                    "indexed": true,
                    "internalType": "address",
                    "name": "approved",
                    "type": "address"
                },
                {
                    "indexed": true,
                    "internalType": "uint256",
                    "name": "tokenId",
                    "type": "uint256"
                }
            ],
            "name": "Approval",
            "type": "event"
        },
        {
            "anonymous": false,
            "inputs": [
                {
                    "indexed": true,
                    "internalType": "address",
                    "name": "owner",
                    "type": "address"
                },
                {
                    "indexed": true,
                    "internalType": "address",
                    "name": "operator",
                    "type": "address"
                },
                {
                    "indexed": false,
                    "internalType": "bool",
                    "name": "approved",
                    "type": "bool"
                }
            ],
            "name": "ApprovalForAll",
            "type": "event"
        },
        {
            "anonymous": false,
            "inputs": [
                {
                    "indexed": false,
                    "internalType": "uint256",
                    "name": "tokenId",
                    "type": "uint256"
                },
                {
                    "indexed": false,
                    "internalType": "uint256",
                    "name": "price",
                    "type": "uint256"
                },
                {
                    "indexed": false,
                    "internalType": "address",
                    "name": "buyer",
                    "type": "address"
                }
            ],
            "name": "HouseBought",
            "type": "event"
        },
        {
            "anonymous": false,
            "inputs": [
                {
                    "indexed": false,
                    "internalType": "uint256",
                    "name": "tokenId",
                    "type": "uint256"
                },
                {
                    "indexed": false,
                    "internalType": "uint256",
                    "name": "price",
                    "type": "uint256"
                },
                {
                    "indexed": false,
                    "internalType": "address",
                    "name": "owner",
                    "type": "address"
                }
            ],
            "name": "HouseListed",
            "type": "event"
        },
        {
            "anonymous": false,
            "inputs": [
                {
                    "indexed": false,
                    "internalType": "uint256",
                    "name": "tokenId",
                    "type": "uint256"
                }
            ],
            "name": "HouseUnlisted",
            "type": "event"
        },
        {
            "anonymous": false,
            "inputs": [
                {
                    "indexed": true,
                    "internalType": "address",
                    "name": "from",
                    "type": "address"
                },
                {
                    "indexed": true,
                    "internalType": "address",
                    "name": "to",
                    "type": "address"
                },
                {
                    "indexed": true,
                    "internalType": "uint256",
                    "name": "tokenId",
                    "type": "uint256"
                }
            ],
            "name": "Transfer",
            "type": "event"
        },
        {
            "inputs": [],
            "name": "_tokenIdCounter",
            "outputs": [
                {
                    "internalType": "uint256",
                    "name": "",
                    "type": "uint256"
                }
            ],
            "stateMutability": "view",
            "type": "function"
        },
        {
            "inputs": [
                {
                    "internalType": "address",
                    "name": "to",
                    "type": "address"
                },
                {
                    "internalType": "uint256",
                    "name": "tokenId",
                    "type": "uint256"
                }
            ],
            "name": "approve",
            "outputs": [],
            "stateMutability": "nonpayable",
            "type": "function"
        },
        {
            "inputs": [
                {
                    "internalType": "address",
                    "name": "owner",
                    "type": "address"
                }
            ],
            "name": "balanceOf",
            "outputs": [
                {
                    "internalType": "uint256",
                    "name": "",
                    "type": "uint256"
                }
            ],
            "stateMutability": "view",
            "type": "function"
        },
        {
            "inputs": [
                {
                    "internalType": "uint256",
                    "name": "tokenId",
                    "type": "uint256"
                }
            ],
            "name": "buyHouse",
            "outputs": [
                {
                    "components": [
                        {
                            "internalType": "address",
                            "name": "owner",
                            "type": "address"
                        },
                        {
                            "internalType": "uint256",
                            "name": "tokenId",
                            "type": "uint256"
                        },
                        {
                            "internalType": "bool",
                            "name": "isListed",
                            "type": "bool"
                        },
                        {
                            "internalType": "uint256",
                            "name": "listedStartTimestamp",
                            "type": "uint256"
                        },
                        {
                            "internalType": "uint256",
                            "name": "price",
                            "type": "uint256"
                        }
                    ],
                    "internalType": "struct BuyMyRoom.House",
                    "name": "",
                    "type": "tuple"
                }
            ],
            "stateMutability": "payable",
            "type": "function"
        },
        {
            "inputs": [],
            "name": "feeRate",
            "outputs": [
                {
                    "internalType": "uint256",
                    "name": "",
                    "type": "uint256"
                }
            ],
            "stateMutability": "view",
            "type": "function"
        },
        {
            "inputs": [
                {
                    "internalType": "uint256",
                    "name": "tokenId",
                    "type": "uint256"
                }
            ],
            "name": "getApproved",
            "outputs": [
                {
                    "internalType": "address",
                    "name": "",
                    "type": "address"
                }
            ],
            "stateMutability": "view",
            "type": "function"
        },
        {
            "inputs": [],
            "name": "getMyHouses",
            "outputs": [
                {
                    "components": [
                        {
                            "internalType": "address",
                            "name": "owner",
                            "type": "address"
                        },
                        {
                            "internalType": "uint256",
                            "name": "tokenId",
                            "type": "uint256"
                        },
                        {
                            "internalType": "bool",
                            "name": "isListed",
                            "type": "bool"
                        },
                        {
                            "internalType": "uint256",
                            "name": "listedStartTimestamp",
                            "type": "uint256"
                        },
                        {
                            "internalType": "uint256",
                            "name": "price",
                            "type": "uint256"
                        }
                    ],
                    "internalType": "struct BuyMyRoom.House[]",
                    "name": "",
                    "type": "tuple[]"
                }
            ],
            "stateMutability": "view",
            "type": "function"
        },
        {
            "inputs": [],
            "name": "getMyListingHouses",
            "outputs": [
                {
                    "components": [
                        {
                            "internalType": "address",
                            "name": "owner",
                            "type": "address"
                        },
                        {
                            "internalType": "uint256",
                            "name": "tokenId",
                            "type": "uint256"
                        },
                        {
                            "internalType": "bool",
                            "name": "isListed",
                            "type": "bool"
                        },
                        {
                            "internalType": "uint256",
                            "name": "listedStartTimestamp",
                            "type": "uint256"
                        },
                        {
                            "internalType": "uint256",
                            "name": "price",
                            "type": "uint256"
                        }
                    ],
                    "internalType": "struct BuyMyRoom.House[]",
                    "name": "",
                    "type": "tuple[]"
                }
            ],
            "stateMutability": "view",
            "type": "function"
        },
        {
            "inputs": [],
            "name": "getTotalHouses",
            "outputs": [
                {
                    "components": [
                        {
                            "internalType": "address",
                            "name": "owner",
                            "type": "address"
                        },
                        {
                            "internalType": "uint256",
                            "name": "tokenId",
                            "type": "uint256"
                        },
                        {
                            "internalType": "bool",
                            "name": "isListed",
                            "type": "bool"
                        },
                        {
                            "internalType": "uint256",
                            "name": "listedStartTimestamp",
                            "type": "uint256"
                        },
                        {
                            "internalType": "uint256",
                            "name": "price",
                            "type": "uint256"
                        }
                    ],
                    "internalType": "struct BuyMyRoom.House[]",
                    "name": "",
                    "type": "tuple[]"
                }
            ],
            "stateMutability": "view",
            "type": "function"
        },
        {
            "inputs": [],
            "name": "getTotalListingHouses",
            "outputs": [
                {
                    "components": [
                        {
                            "internalType": "address",
                            "name": "owner",
                            "type": "address"
                        },
                        {
                            "internalType": "uint256",
                            "name": "tokenId",
                            "type": "uint256"
                        },
                        {
                            "internalType": "bool",
                            "name": "isListed",
                            "type": "bool"
                        },
                        {
                            "internalType": "uint256",
                            "name": "listedStartTimestamp",
                            "type": "uint256"
                        },
                        {
                            "internalType": "uint256",
                            "name": "price",
                            "type": "uint256"
                        }
                    ],
                    "internalType": "struct BuyMyRoom.House[]",
                    "name": "",
                    "type": "tuple[]"
                }
            ],
            "stateMutability": "view",
            "type": "function"
        },
        {
            "inputs": [],
            "name": "helloworld",
            "outputs": [
                {
                    "internalType": "string",
                    "name": "",
                    "type": "string"
                }
            ],
            "stateMutability": "pure",
            "type": "function"
        },
        {
            "inputs": [
                {
                    "internalType": "uint256",
                    "name": "",
                    "type": "uint256"
                }
            ],
            "name": "houses",
            "outputs": [
                {
                    "internalType": "address",
                    "name": "owner",
                    "type": "address"
                },
                {
                    "internalType": "uint256",
                    "name": "tokenId",
                    "type": "uint256"
                },
                {
                    "internalType": "bool",
                    "name": "isListed",
                    "type": "bool"
                },
                {
                    "internalType": "uint256",
                    "name": "listedStartTimestamp",
                    "type": "uint256"
                },
                {
                    "internalType": "uint256",
                    "name": "price",
                    "type": "uint256"
                }
            ],
            "stateMutability": "view",
            "type": "function"
        },
        {
            "inputs": [],
            "name": "initUserHouse",
            "outputs": [],
            "stateMutability": "nonpayable",
            "type": "function"
        },
        {
            "inputs": [
                {
                    "internalType": "address",
                    "name": "",
                    "type": "address"
                }
            ],
            "name": "initUsers",
            "outputs": [
                {
                    "internalType": "bool",
                    "name": "",
                    "type": "bool"
                }
            ],
            "stateMutability": "view",
            "type": "function"
        },
        {
            "inputs": [
                {
                    "internalType": "address",
                    "name": "owner",
                    "type": "address"
                },
                {
                    "internalType": "address",
                    "name": "operator",
                    "type": "address"
                }
            ],
            "name": "isApprovedForAll",
            "outputs": [
                {
                    "internalType": "bool",
                    "name": "",
                    "type": "bool"
                }
            ],
            "stateMutability": "view",
            "type": "function"
        },
        {
            "inputs": [
                {
                    "internalType": "uint256",
                    "name": "tokenId",
                    "type": "uint256"
                },
                {
                    "internalType": "uint256",
                    "name": "price",
                    "type": "uint256"
                }
            ],
            "name": "listHouse",
            "outputs": [
                {
                    "components": [
                        {
                            "internalType": "address",
                            "name": "owner",
                            "type": "address"
                        },
                        {
                            "internalType": "uint256",
                            "name": "tokenId",
                            "type": "uint256"
                        },
                        {
                            "internalType": "bool",
                            "name": "isListed",
                            "type": "bool"
                        },
                        {
                            "internalType": "uint256",
                            "name": "listedStartTimestamp",
                            "type": "uint256"
                        },
                        {
                            "internalType": "uint256",
                            "name": "price",
                            "type": "uint256"
                        }
                    ],
                    "internalType": "struct BuyMyRoom.House",
                    "name": "",
                    "type": "tuple"
                }
            ],
            "stateMutability": "nonpayable",
            "type": "function"
        },
        {
            "inputs": [],
            "name": "myERC20",
            "outputs": [
                {
                    "internalType": "contract MyERC20",
                    "name": "",
                    "type": "address"
                }
            ],
            "stateMutability": "view",
            "type": "function"
        },
        {
            "inputs": [],
            "name": "name",
            "outputs": [
                {
                    "internalType": "string",
                    "name": "",
                    "type": "string"
                }
            ],
            "stateMutability": "view",
            "type": "function"
        },
        {
            "inputs": [
                {
                    "internalType": "uint256",
                    "name": "tokenId",
                    "type": "uint256"
                }
            ],
            "name": "ownerOf",
            "outputs": [
                {
                    "internalType": "address",
                    "name": "",
                    "type": "address"
                }
            ],
            "stateMutability": "view",
            "type": "function"
        },
        {
            "inputs": [],
            "name": "platform",
            "outputs": [
                {
                    "internalType": "address",
                    "name": "",
                    "type": "address"
                }
            ],
            "stateMutability": "view",
            "type": "function"
        },
        {
            "inputs": [
                {
                    "internalType": "address",
                    "name": "from",
                    "type": "address"
                },
                {
                    "internalType": "address",
                    "name": "to",
                    "type": "address"
                },
                {
                    "internalType": "uint256",
                    "name": "tokenId",
                    "type": "uint256"
                }
            ],
            "name": "safeTransferFrom",
            "outputs": [],
            "stateMutability": "nonpayable",
            "type": "function"
        },
        {
            "inputs": [
                {
                    "internalType": "address",
                    "name": "from",
                    "type": "address"
                },
                {
                    "internalType": "address",
                    "name": "to",
                    "type": "address"
                },
                {
                    "internalType": "uint256",
                    "name": "tokenId",
                    "type": "uint256"
                },
                {
                    "internalType": "bytes",
                    "name": "data",
                    "type": "bytes"
                }
            ],
            "name": "safeTransferFrom",
            "outputs": [],
            "stateMutability": "nonpayable",
            "type": "function"
        },
        {
            "inputs": [
                {
                    "internalType": "address",
                    "name": "operator",
                    "type": "address"
                },
                {
                    "internalType": "bool",
                    "name": "approved",
                    "type": "bool"
                }
            ],
            "name": "setApprovalForAll",
            "outputs": [],
            "stateMutability": "nonpayable",
            "type": "function"
        },
        {
            "inputs": [
                {
                    "internalType": "bytes4",
                    "name": "interfaceId",
                    "type": "bytes4"
                }
            ],
            "name": "supportsInterface",
            "outputs": [
                {
                    "internalType": "bool",
                    "name": "",
                    "type": "bool"
                }
            ],
            "stateMutability": "view",
            "type": "function"
        },
        {
            "inputs": [],
            "name": "symbol",
            "outputs": [
                {
                    "internalType": "string",
                    "name": "",
                    "type": "string"
                }
            ],
            "stateMutability": "view",
            "type": "function"
        },
        {
            "inputs": [
                {
                    "internalType": "uint256",
                    "name": "tokenId",
                    "type": "uint256"
                }
            ],
            "name": "tokenURI",
            "outputs": [
                {
                    "internalType": "string",
                    "name": "",
                    "type": "string"
                }
            ],
            "stateMutability": "view",
            "type": "function"
        },
        {
            "inputs": [
                {
                    "internalType": "address",
                    "name": "from",
                    "type": "address"
                },
                {
                    "internalType": "address",
                    "name": "to",
                    "type": "address"
                },
                {
                    "internalType": "uint256",
                    "name": "tokenId",
                    "type": "uint256"
                }
            ],
            "name": "transferFrom",
            "outputs": [],
            "stateMutability": "nonpayable",
            "type": "function"
        },
        {
            "inputs": [
                {
                    "internalType": "uint256",
                    "name": "tokenId",
                    "type": "uint256"
                }
            ],
            "name": "unListHouse",
            "outputs": [
                {
                    "components": [
                        {
                            "internalType": "address",
                            "name": "owner",
                            "type": "address"
                        },
                        {
                            "internalType": "uint256",
                            "name": "tokenId",
                            "type": "uint256"
                        },
                        {
                            "internalType": "bool",
                            "name": "isListed",
                            "type": "bool"
                        },
                        {
                            "internalType": "uint256",
                            "name": "listedStartTimestamp",
                            "type": "uint256"
                        },
                        {
                            "internalType": "uint256",
                            "name": "price",
                            "type": "uint256"
                        }
                    ],
                    "internalType": "struct BuyMyRoom.House",
                    "name": "",
                    "type": "tuple"
                }
            ],
            "stateMutability": "nonpayable",
            "type": "function"
        }
    ],
    "bytecode": "0x60806040523480156200001157600080fd5b506040518060400160405280600981526020017f4275794d79526f6f6d00000000000000000000000000000000000000000000008152506040518060400160405280600381526020017f424d52000000000000000000000000000000000000000000000000000000000081525081600090816200008f919062000375565b508060019081620000a1919062000375565b505050600060088190555033600960006101000a81548173ffffffffffffffffffffffffffffffffffffffff021916908373ffffffffffffffffffffffffffffffffffffffff1602179055506001600a819055506200045c565b600081519050919050565b7f4e487b7100000000000000000000000000000000000000000000000000000000600052604160045260246000fd5b7f4e487b7100000000000000000000000000000000000000000000000000000000600052602260045260246000fd5b600060028204905060018216806200017d57607f821691505b60208210810362000193576200019262000135565b5b50919050565b60008190508160005260206000209050919050565b60006020601f8301049050919050565b600082821b905092915050565b600060088302620001fd7fffffffffffffffffffffffffffffffffffffffffffffffffffffffffffffffff82620001be565b620002098683620001be565b95508019841693508086168417925050509392505050565b6000819050919050565b6000819050919050565b600062000256620002506200024a8462000221565b6200022b565b62000221565b9050919050565b6000819050919050565b620002728362000235565b6200028a62000281826200025d565b848454620001cb565b825550505050565b600090565b620002a162000292565b620002ae81848462000267565b505050565b5b81811015620002d657620002ca60008262000297565b600181019050620002b4565b5050565b601f8211156200032557620002ef8162000199565b620002fa84620001ae565b810160208510156200030a578190505b620003226200031985620001ae565b830182620002b3565b50505b505050565b600082821c905092915050565b60006200034a600019846008026200032a565b1980831691505092915050565b600062000365838362000337565b9150826002028217905092915050565b6200038082620000fb565b67ffffffffffffffff8111156200039c576200039b62000106565b5b620003a8825462000164565b620003b5828285620002da565b600060209050601f831160018114620003ed5760008415620003d8578287015190505b620003e4858262000357565b86555062000454565b601f198416620003fd8662000199565b60005b82811015620004275784890151825560018201915060208501945060208101905062000400565b8683101562000447578489015162000443601f89168262000337565b8355505b6001600288020188555050505b505050505050565b6143ba806200046c6000396000f3fe6080604052600436106101b75760003560e01c806384c4bd4b116100ec578063b14f1afd1161008a578063c87b56dd11610064578063c87b56dd14610628578063e985e9c514610665578063eddc4269146106a2578063f88e796a146106d2576101b7565b8063b14f1afd146105a9578063b88d4fde146105d4578063bf1d36c7146105fd576101b7565b8063978bbdb9116100c6578063978bbdb9146104d757806399b2317814610502578063a22cb4651461053f578063aeda852f14610568576101b7565b806384c4bd4b1461046a578063897487891461049557806395d89b41146104ac576101b7565b806342842e0e116101595780636352211e116101335780636352211e1461039a5780636d3739c4146103d75780636f0672cb1461040257806370a082311461042d576101b7565b806342842e0e146103095780634b9bdb70146103325780634bde38c81461036f576101b7565b8063095ea7b311610195578063095ea7b31461026157806323b872dd1461028a5780632f2f4859146102b357806339d95f9f146102de576101b7565b806301ffc9a7146101bc57806306fdde03146101f9578063081812fc14610224575b600080fd5b3480156101c857600080fd5b506101e360048036038101906101de91906132e3565b61070f565b6040516101f0919061332b565b60405180910390f35b34801561020557600080fd5b5061020e6107f1565b60405161021b91906133d6565b60405180910390f35b34801561023057600080fd5b5061024b6004803603810190610246919061342e565b610883565b604051610258919061349c565b60405180910390f35b34801561026d57600080fd5b50610288600480360381019061028391906134e3565b61089f565b005b34801561029657600080fd5b506102b160048036038101906102ac9190613523565b6108b5565b005b3480156102bf57600080fd5b506102c86109b7565b6040516102d591906133d6565b60405180910390f35b3480156102ea57600080fd5b506102f36109f4565b60405161030091906136ba565b60405180910390f35b34801561031557600080fd5b50610330600480360381019061032b9190613523565b610b43565b005b34801561033e57600080fd5b50610359600480360381019061035491906136dc565b610b63565b604051610366919061332b565b60405180910390f35b34801561037b57600080fd5b50610384610b83565b604051610391919061349c565b60405180910390f35b3480156103a657600080fd5b506103c160048036038101906103bc919061342e565b610ba9565b6040516103ce919061349c565b60405180910390f35b3480156103e357600080fd5b506103ec610bbb565b6040516103f99190613768565b60405180910390f35b34801561040e57600080fd5b50610417610be1565b60405161042491906136ba565b60405180910390f35b34801561043957600080fd5b50610454600480360381019061044f91906136dc565b610dc3565b6040516104619190613792565b60405180910390f35b34801561047657600080fd5b5061047f610e7d565b60405161048c9190613792565b60405180910390f35b3480156104a157600080fd5b506104aa610e83565b005b3480156104b857600080fd5b506104c1610fbb565b6040516104ce91906133d6565b60405180910390f35b3480156104e357600080fd5b506104ec61104d565b6040516104f99190613792565b60405180910390f35b34801561050e57600080fd5b50610529600480360381019061052491906137ad565b611053565b6040516105369190613855565b60405180910390f35b34801561054b57600080fd5b506105666004803603810190610561919061389c565b611372565b005b34801561057457600080fd5b5061058f600480360381019061058a919061342e565b611388565b6040516105a09594939291906138dc565b60405180910390f35b3480156105b557600080fd5b506105be6113eb565b6040516105cb91906136ba565b60405180910390f35b3480156105e057600080fd5b506105fb60048036038101906105f69190613a64565b6115a5565b005b34801561060957600080fd5b506106126115c2565b60405161061f91906136ba565b60405180910390f35b34801561063457600080fd5b5061064f600480360381019061064a919061342e565b611822565b60405161065c91906133d6565b60405180910390f35b34801561067157600080fd5b5061068c60048036038101906106879190613ae7565b61188b565b604051610699919061332b565b60405180910390f35b6106bc60048036038101906106b7919061342e565b61191f565b6040516106c99190613855565b60405180910390f35b3480156106de57600080fd5b506106f960048036038101906106f4919061342e565b611e44565b6040516107069190613855565b60405180910390f35b60007f80ac58cd000000000000000000000000000000000000000000000000000000007bffffffffffffffffffffffffffffffffffffffffffffffffffffffff1916827bffffffffffffffffffffffffffffffffffffffffffffffffffffffff191614806107da57507f5b5e139f000000000000000000000000000000000000000000000000000000007bffffffffffffffffffffffffffffffffffffffffffffffffffffffff1916827bffffffffffffffffffffffffffffffffffffffffffffffffffffffff1916145b806107ea57506107e982612077565b5b9050919050565b60606000805461080090613b56565b80601f016020809104026020016040519081016040528092919081815260200182805461082c90613b56565b80156108795780601f1061084e57610100808354040283529160200191610879565b820191906000526020600020905b81548152906001019060200180831161085c57829003601f168201915b5050505050905090565b600061088e826120e1565b5061089882612169565b9050919050565b6108b182826108ac6121a6565b6121ae565b5050565b600073ffffffffffffffffffffffffffffffffffffffff168273ffffffffffffffffffffffffffffffffffffffff16036109275760006040517f64a0ae9200000000000000000000000000000000000000000000000000000000815260040161091e919061349c565b60405180910390fd5b600061093b83836109366121a6565b6121c0565b90508373ffffffffffffffffffffffffffffffffffffffff168173ffffffffffffffffffffffffffffffffffffffff16146109b1578382826040517f64283d7b0000000000000000000000000000000000000000000000000000000081526004016109a893929190613b87565b60405180910390fd5b50505050565b60606040518060400160405280600b81526020017f68656c6c6f20776f726c64000000000000000000000000000000000000000000815250905090565b6060600060085467ffffffffffffffff811115610a1457610a13613939565b5b604051908082528060200260200182016040528015610a4d57816020015b610a3a613226565b815260200190600190039081610a325790505b50905060005b600854811015610b3b57600660008281526020019081526020016000206040518060a00160405290816000820160009054906101000a900473ffffffffffffffffffffffffffffffffffffffff1673ffffffffffffffffffffffffffffffffffffffff1673ffffffffffffffffffffffffffffffffffffffff168152602001600182015481526020016002820160009054906101000a900460ff1615151515815260200160038201548152602001600482015481525050828281518110610b1d57610b1c613bbe565b5b60200260200101819052508080610b3390613c1c565b915050610a53565b508091505090565b610b5e838383604051806020016040528060008152506115a5565b505050565b60076020528060005260406000206000915054906101000a900460ff1681565b600960009054906101000a900473ffffffffffffffffffffffffffffffffffffffff1681565b6000610bb4826120e1565b9050919050565b600b60009054906101000a900473ffffffffffffffffffffffffffffffffffffffff1681565b60606000805b600854811015610c3c576006600082815260200190815260200160002060020160009054906101000a900460ff1615610c29578180610c2590613c1c565b9250505b8080610c3490613c1c565b915050610be7565b5060008167ffffffffffffffff811115610c5957610c58613939565b5b604051908082528060200260200182016040528015610c9257816020015b610c7f613226565b815260200190600190039081610c775790505b5090506000805b600854811015610db9576006600082815260200190815260200160002060020160009054906101000a900460ff1615610da657600660008281526020019081526020016000206040518060a00160405290816000820160009054906101000a900473ffffffffffffffffffffffffffffffffffffffff1673ffffffffffffffffffffffffffffffffffffffff1673ffffffffffffffffffffffffffffffffffffffff168152602001600182015481526020016002820160009054906101000a900460ff1615151515815260200160038201548152602001600482015481525050838381518110610d8c57610d8b613bbe565b5b60200260200101819052508180610da290613c1c565b9250505b8080610db190613c1c565b915050610c99565b5081935050505090565b60008073ffffffffffffffffffffffffffffffffffffffff168273ffffffffffffffffffffffffffffffffffffffff1603610e365760006040517f89c62b64000000000000000000000000000000000000000000000000000000008152600401610e2d919061349c565b60405180910390fd5b600360008373ffffffffffffffffffffffffffffffffffffffff1673ffffffffffffffffffffffffffffffffffffffff168152602001908152602001600020549050919050565b60085481565b600760003373ffffffffffffffffffffffffffffffffffffffff1673ffffffffffffffffffffffffffffffffffffffff16815260200190815260200160002060009054906101000a900460ff1615610f10576040517f08c379a0000000000000000000000000000000000000000000000000000000008152600401610f0790613cb0565b60405180910390fd5b610f19336123da565b610f22336123da565b6001600760003373ffffffffffffffffffffffffffffffffffffffff1673ffffffffffffffffffffffffffffffffffffffff16815260200190815260200160002060006101000a81548160ff021916908315150217905550610fb96040518060400160405280601481526020017f496e697469616c697a656420757365723a20257300000000000000000000000081525033612523565b565b606060018054610fca90613b56565b80601f0160208091040260200160405190810160405280929190818152602001828054610ff690613b56565b80156110435780601f1061101857610100808354040283529160200191611043565b820191906000526020600020905b81548152906001019060200180831161102657829003601f168201915b5050505050905090565b600a5481565b61105b613226565b3373ffffffffffffffffffffffffffffffffffffffff1661107b84610ba9565b73ffffffffffffffffffffffffffffffffffffffff16146110d1576040517f08c379a00000000000000000000000000000000000000000000000000000000081526004016110c890613d42565b60405180910390fd5b600073ffffffffffffffffffffffffffffffffffffffff166006600085815260200190815260200160002060000160009054906101000a900473ffffffffffffffffffffffffffffffffffffffff1673ffffffffffffffffffffffffffffffffffffffff1603611176576040517f08c379a000000000000000000000000000000000000000000000000000000000815260040161116d90613dae565b60405180910390fd5b600082116111b9576040517f08c379a00000000000000000000000000000000000000000000000000000000081526004016111b090613e1a565b60405180910390fd5b6006600084815260200190815260200160002060020160009054906101000a900460ff161561121d576040517f08c379a000000000000000000000000000000000000000000000000000000000815260040161121490613e86565b60405180910390fd5b60016006600085815260200190815260200160002060020160006101000a81548160ff0219169083151502179055508160066000858152602001908152602001600020600401819055504260066000858152602001908152602001600020600301819055507f60b3e540896cf4a419e7b7274a1f1282223f5d92ca6f0152cf820fe457fb48438383336040516112b593929190613ea6565b60405180910390a1600660008481526020019081526020016000206040518060a00160405290816000820160009054906101000a900473ffffffffffffffffffffffffffffffffffffffff1673ffffffffffffffffffffffffffffffffffffffff1673ffffffffffffffffffffffffffffffffffffffff168152602001600182015481526020016002820160009054906101000a900460ff1615151515815260200160038201548152602001600482015481525050905092915050565b61138461137d6121a6565b83836125bf565b5050565b60066020528060005260406000206000915090508060000160009054906101000a900473ffffffffffffffffffffffffffffffffffffffff16908060010154908060020160009054906101000a900460ff16908060030154908060040154905085565b606060006113f833610dc3565b905060008167ffffffffffffffff81111561141657611415613939565b5b60405190808252806020026020018201604052801561144f57816020015b61143c613226565b8152602001906001900390816114345790505b509050600082036114645780925050506115a2565b6000805b60085481101561159a573373ffffffffffffffffffffffffffffffffffffffff1661149282610ba9565b73ffffffffffffffffffffffffffffffffffffffff160361158757600660008281526020019081526020016000206040518060a00160405290816000820160009054906101000a900473ffffffffffffffffffffffffffffffffffffffff1673ffffffffffffffffffffffffffffffffffffffff1673ffffffffffffffffffffffffffffffffffffffff168152602001600182015481526020016002820160009054906101000a900460ff161515151581526020016003820154815260200160048201548152505083838151811061156d5761156c613bbe565b5b6020026020010181905250818061158390613c1c565b9250505b808061159290613c1c565b915050611468565b508193505050505b90565b6115b08484846108b5565b6115bc8484848461272e565b50505050565b60606000805b60085481101561165c573373ffffffffffffffffffffffffffffffffffffffff166115f282610ba9565b73ffffffffffffffffffffffffffffffffffffffff1614801561163557506006600082815260200190815260200160002060020160009054906101000a900460ff165b1561164957818061164590613c1c565b9250505b808061165490613c1c565b9150506115c8565b5060008167ffffffffffffffff81111561167957611678613939565b5b6040519080825280602002602001820160405280156116b257816020015b61169f613226565b8152602001906001900390816116975790505b5090506000805b600854811015611818573373ffffffffffffffffffffffffffffffffffffffff166116e382610ba9565b73ffffffffffffffffffffffffffffffffffffffff1614801561172657506006600082815260200190815260200160002060020160009054906101000a900460ff165b1561180557600660008281526020019081526020016000206040518060a00160405290816000820160009054906101000a900473ffffffffffffffffffffffffffffffffffffffff1673ffffffffffffffffffffffffffffffffffffffff1673ffffffffffffffffffffffffffffffffffffffff168152602001600182015481526020016002820160009054906101000a900460ff16151515158152602001600382015481526020016004820154815250508383815181106117eb576117ea613bbe565b5b6020026020010181905250818061180190613c1c565b9250505b808061181090613c1c565b9150506116b9565b5081935050505090565b606061182d826120e1565b5060006118386128e5565b905060008151116118585760405180602001604052806000815250611883565b80611862846128fc565b604051602001611873929190613f19565b6040516020818303038152906040525b915050919050565b6000600560008473ffffffffffffffffffffffffffffffffffffffff1673ffffffffffffffffffffffffffffffffffffffff16815260200190815260200160002060008373ffffffffffffffffffffffffffffffffffffffff1673ffffffffffffffffffffffffffffffffffffffff16815260200190815260200160002060009054906101000a900460ff16905092915050565b611927613226565b6006600083815260200190815260200160002060020160009054906101000a900460ff1661198a576040517f08c379a000000000000000000000000000000000000000000000000000000000815260040161198190613f89565b60405180910390fd5b600060066000848152602001908152602001600020600401541180156119c6575060006006600084815260200190815260200160002060030154115b611a05576040517f08c379a00000000000000000000000000000000000000000000000000000000081526004016119fc9061401b565b60405180910390fd5b3373ffffffffffffffffffffffffffffffffffffffff16611a2583610ba9565b73ffffffffffffffffffffffffffffffffffffffff1603611a7b576040517f08c379a0000000000000000000000000000000000000000000000000000000008152600401611a7290614087565b60405180910390fd5b6006600083815260200190815260200160002060040154341015611ad4576040517f08c379a0000000000000000000000000000000000000000000000000000000008152600401611acb906140f3565b60405180910390fd5b60006006600084815260200190815260200160002060000160009054906101000a900473ffffffffffffffffffffffffffffffffffffffff1690506000600660008581526020019081526020016000206004015490506000600660008681526020019081526020016000206003015442611b4e9190614113565b905060006064600a5484603c85611b659190614176565b611b6f91906141a7565b611b7991906141a7565b611b839190614176565b9050600060646014600a5486611b9991906141a7565b611ba391906141a7565b611bad9190614176565b905080821115611bbb578091505b600960009054906101000a900473ffffffffffffffffffffffffffffffffffffffff1673ffffffffffffffffffffffffffffffffffffffff166108fc839081150290604051600060405180830381858888f19350505050158015611c23573d6000803e3d6000fd5b508473ffffffffffffffffffffffffffffffffffffffff166108fc8386611c4a9190614113565b9081150290604051600060405180830381858888f19350505050158015611c75573d6000803e3d6000fd5b50611c818533896129ca565b336006600089815260200190815260200160002060000160006101000a81548173ffffffffffffffffffffffffffffffffffffffff021916908373ffffffffffffffffffffffffffffffffffffffff16021790555060006006600089815260200190815260200160002060020160006101000a81548160ff02191690831515021790555060006006600089815260200190815260200160002060040181905550600060066000898152602001908152602001600020600301819055507fbf53448f4289b0081032c4d84e812945965589c060691ca37a21ad4c2a90c8ba87670de0b6b3a764000086611d739190614176565b33604051611d8393929190613ea6565b60405180910390a1600660008881526020019081526020016000206040518060a00160405290816000820160009054906101000a900473ffffffffffffffffffffffffffffffffffffffff1673ffffffffffffffffffffffffffffffffffffffff1673ffffffffffffffffffffffffffffffffffffffff168152602001600182015481526020016002820160009054906101000a900460ff161515151581526020016003820154815260200160048201548152505095505050505050919050565b611e4c613226565b3373ffffffffffffffffffffffffffffffffffffffff16611e6c83610ba9565b73ffffffffffffffffffffffffffffffffffffffff1614611ec2576040517f08c379a0000000000000000000000000000000000000000000000000000000008152600401611eb990613d42565b60405180910390fd5b6006600083815260200190815260200160002060020160009054906101000a900460ff16611f25576040517f08c379a0000000000000000000000000000000000000000000000000000000008152600401611f1c90613f89565b60405180910390fd5b60006006600084815260200190815260200160002060020160006101000a81548160ff02191690831515021790555060006006600084815260200190815260200160002060040181905550600060066000848152602001908152602001600020600301819055507f9531c37610754380791bcd3dc816332fed23c038600da29d51fb6a34b7c98aff82604051611fbb9190613792565b60405180910390a1600660008381526020019081526020016000206040518060a00160405290816000820160009054906101000a900473ffffffffffffffffffffffffffffffffffffffff1673ffffffffffffffffffffffffffffffffffffffff1673ffffffffffffffffffffffffffffffffffffffff168152602001600182015481526020016002820160009054906101000a900460ff16151515158152602001600382015481526020016004820154815250509050919050565b60007f01ffc9a7000000000000000000000000000000000000000000000000000000007bffffffffffffffffffffffffffffffffffffffffffffffffffffffff1916827bffffffffffffffffffffffffffffffffffffffffffffffffffffffff1916149050919050565b6000806120ed83612b37565b9050600073ffffffffffffffffffffffffffffffffffffffff168173ffffffffffffffffffffffffffffffffffffffff160361216057826040517f7e2732890000000000000000000000000000000000000000000000000000000081526004016121579190613792565b60405180910390fd5b80915050919050565b60006004600083815260200190815260200160002060009054906101000a900473ffffffffffffffffffffffffffffffffffffffff169050919050565b600033905090565b6121bb8383836001612b74565b505050565b6000806121cc84612b37565b9050600073ffffffffffffffffffffffffffffffffffffffff168373ffffffffffffffffffffffffffffffffffffffff161461220e5761220d818486612d39565b5b600073ffffffffffffffffffffffffffffffffffffffff168173ffffffffffffffffffffffffffffffffffffffff161461229f57612250600085600080612b74565b6001600360008373ffffffffffffffffffffffffffffffffffffffff1673ffffffffffffffffffffffffffffffffffffffff168152602001908152602001600020600082825403925050819055505b600073ffffffffffffffffffffffffffffffffffffffff168573ffffffffffffffffffffffffffffffffffffffff1614612322576001600360008773ffffffffffffffffffffffffffffffffffffffff1673ffffffffffffffffffffffffffffffffffffffff168152602001908152602001600020600082825401925050819055505b846002600086815260200190815260200160002060006101000a81548173ffffffffffffffffffffffffffffffffffffffff021916908373ffffffffffffffffffffffffffffffffffffffff160217905550838573ffffffffffffffffffffffffffffffffffffffff168273ffffffffffffffffffffffffffffffffffffffff167fddf252ad1be2c89b69c2b068fc378daa952ba7f163c4a11628f55a4df523b3ef60405160405180910390a4809150509392505050565b6123e681600854612dfd565b6040518060a001604052808273ffffffffffffffffffffffffffffffffffffffff168152602001600854815260200160001515815260200160008152602001600081525060066000600854815260200190815260200160002060008201518160000160006101000a81548173ffffffffffffffffffffffffffffffffffffffff021916908373ffffffffffffffffffffffffffffffffffffffff1602179055506020820151816001015560408201518160020160006101000a81548160ff0219169083151502179055506060820151816003015560808201518160040155905050600860008154809291906124da90613c1c565b91905055506125206040518060400160405280601081526020017f546f74616c20686f757365733a20257300000000000000000000000000000000815250600854612e1b565b50565b6125bb82826040516024016125399291906141e9565b6040516020818303038152906040527f319af333000000000000000000000000000000000000000000000000000000007bffffffffffffffffffffffffffffffffffffffffffffffffffffffff19166020820180517bffffffffffffffffffffffffffffffffffffffffffffffffffffffff8381831617835250505050612eb7565b5050565b600073ffffffffffffffffffffffffffffffffffffffff168273ffffffffffffffffffffffffffffffffffffffff160361263057816040517f5b08ba18000000000000000000000000000000000000000000000000000000008152600401612627919061349c565b60405180910390fd5b80600560008573ffffffffffffffffffffffffffffffffffffffff1673ffffffffffffffffffffffffffffffffffffffff16815260200190815260200160002060008473ffffffffffffffffffffffffffffffffffffffff1673ffffffffffffffffffffffffffffffffffffffff16815260200190815260200160002060006101000a81548160ff0219169083151502179055508173ffffffffffffffffffffffffffffffffffffffff168373ffffffffffffffffffffffffffffffffffffffff167f17307eab39ab6107e8899845ad3d59bd9653f200f220920489ca2b5937696c3183604051612721919061332b565b60405180910390a3505050565b60008373ffffffffffffffffffffffffffffffffffffffff163b11156128df578273ffffffffffffffffffffffffffffffffffffffff1663150b7a026127726121a6565b8685856040518563ffffffff1660e01b8152600401612794949392919061426e565b6020604051808303816000875af19250505080156127d057506040513d601f19601f820116820180604052508101906127cd91906142cf565b60015b612854573d8060008114612800576040519150601f19603f3d011682016040523d82523d6000602084013e612805565b606091505b50600081510361284c57836040517f64a0ae92000000000000000000000000000000000000000000000000000000008152600401612843919061349c565b60405180910390fd5b805181602001fd5b63150b7a0260e01b7bffffffffffffffffffffffffffffffffffffffffffffffffffffffff1916817bffffffffffffffffffffffffffffffffffffffffffffffffffffffff1916146128dd57836040517f64a0ae920000000000000000000000000000000000000000000000000000000081526004016128d4919061349c565b60405180910390fd5b505b50505050565b606060405180602001604052806000815250905090565b60606000600161290b84612ed1565b01905060008167ffffffffffffffff81111561292a57612929613939565b5b6040519080825280601f01601f19166020018201604052801561295c5781602001600182028036833780820191505090505b509050600082602001820190505b6001156129bf578080600190039150507f3031323334353637383961626364656600000000000000000000000000000000600a86061a8153600a85816129b3576129b2614147565b5b0494506000850361296a575b819350505050919050565b600073ffffffffffffffffffffffffffffffffffffffff168273ffffffffffffffffffffffffffffffffffffffff1603612a3c5760006040517f64a0ae92000000000000000000000000000000000000000000000000000000008152600401612a33919061349c565b60405180910390fd5b6000612a4a838360006121c0565b9050600073ffffffffffffffffffffffffffffffffffffffff168173ffffffffffffffffffffffffffffffffffffffff1603612abd57816040517f7e273289000000000000000000000000000000000000000000000000000000008152600401612ab49190613792565b60405180910390fd5b8373ffffffffffffffffffffffffffffffffffffffff168173ffffffffffffffffffffffffffffffffffffffff1614612b31578382826040517f64283d7b000000000000000000000000000000000000000000000000000000008152600401612b2893929190613b87565b60405180910390fd5b50505050565b60006002600083815260200190815260200160002060009054906101000a900473ffffffffffffffffffffffffffffffffffffffff169050919050565b8080612bad5750600073ffffffffffffffffffffffffffffffffffffffff168273ffffffffffffffffffffffffffffffffffffffff1614155b15612ce1576000612bbd846120e1565b9050600073ffffffffffffffffffffffffffffffffffffffff168373ffffffffffffffffffffffffffffffffffffffff1614158015612c2857508273ffffffffffffffffffffffffffffffffffffffff168173ffffffffffffffffffffffffffffffffffffffff1614155b8015612c3b5750612c39818461188b565b155b15612c7d57826040517fa9fbf51f000000000000000000000000000000000000000000000000000000008152600401612c74919061349c565b60405180910390fd5b8115612cdf57838573ffffffffffffffffffffffffffffffffffffffff168273ffffffffffffffffffffffffffffffffffffffff167f8c5be1e5ebec7d5bd14f71427d1e84f3dd0314c0f7b2291e5b200ac8c7c3b92560405160405180910390a45b505b836004600085815260200190815260200160002060006101000a81548173ffffffffffffffffffffffffffffffffffffffff021916908373ffffffffffffffffffffffffffffffffffffffff16021790555050505050565b612d44838383613024565b612df857600073ffffffffffffffffffffffffffffffffffffffff168373ffffffffffffffffffffffffffffffffffffffff1603612db957806040517f7e273289000000000000000000000000000000000000000000000000000000008152600401612db09190613792565b60405180910390fd5b81816040517f177e802f000000000000000000000000000000000000000000000000000000008152600401612def9291906142fc565b60405180910390fd5b505050565b612e178282604051806020016040528060008152506130e5565b5050565b612eb38282604051602401612e31929190614325565b6040516020818303038152906040527fb60e72cc000000000000000000000000000000000000000000000000000000007bffffffffffffffffffffffffffffffffffffffffffffffffffffffff19166020820180517bffffffffffffffffffffffffffffffffffffffffffffffffffffffff8381831617835250505050612eb7565b5050565b612ece81612ec6613101613122565b63ffffffff16565b50565b600080600090507a184f03e93ff9f4daa797ed6e38ed64bf6a1f0100000000000000008310612f2f577a184f03e93ff9f4daa797ed6e38ed64bf6a1f0100000000000000008381612f2557612f24614147565b5b0492506040810190505b6d04ee2d6d415b85acef81000000008310612f6c576d04ee2d6d415b85acef81000000008381612f6257612f61614147565b5b0492506020810190505b662386f26fc100008310612f9b57662386f26fc100008381612f9157612f90614147565b5b0492506010810190505b6305f5e1008310612fc4576305f5e1008381612fba57612fb9614147565b5b0492506008810190505b6127108310612fe9576127108381612fdf57612fde614147565b5b0492506004810190505b6064831061300c576064838161300257613001614147565b5b0492506002810190505b600a831061301b576001810190505b80915050919050565b60008073ffffffffffffffffffffffffffffffffffffffff168373ffffffffffffffffffffffffffffffffffffffff16141580156130dc57508273ffffffffffffffffffffffffffffffffffffffff168473ffffffffffffffffffffffffffffffffffffffff16148061309d575061309c848461188b565b5b806130db57508273ffffffffffffffffffffffffffffffffffffffff166130c383612169565b73ffffffffffffffffffffffffffffffffffffffff16145b5b90509392505050565b6130ef838361312d565b6130fc600084848461272e565b505050565b60006a636f6e736f6c652e6c6f679050600080835160208501845afa505050565b61326d819050919050565b600073ffffffffffffffffffffffffffffffffffffffff168273ffffffffffffffffffffffffffffffffffffffff160361319f5760006040517f64a0ae92000000000000000000000000000000000000000000000000000000008152600401613196919061349c565b60405180910390fd5b60006131ad838360006121c0565b9050600073ffffffffffffffffffffffffffffffffffffffff168173ffffffffffffffffffffffffffffffffffffffff16146132215760006040517f73c6ac6e000000000000000000000000000000000000000000000000000000008152600401613218919061349c565b60405180910390fd5b505050565b6040518060a00160405280600073ffffffffffffffffffffffffffffffffffffffff1681526020016000815260200160001515815260200160008152602001600081525090565b613275614355565b565b6000604051905090565b600080fd5b600080fd5b60007fffffffff0000000000000000000000000000000000000000000000000000000082169050919050565b6132c08161328b565b81146132cb57600080fd5b50565b6000813590506132dd816132b7565b92915050565b6000602082840312156132f9576132f8613281565b5b6000613307848285016132ce565b91505092915050565b60008115159050919050565b61332581613310565b82525050565b6000602082019050613340600083018461331c565b92915050565b600081519050919050565b600082825260208201905092915050565b60005b83811015613380578082015181840152602081019050613365565b60008484015250505050565b6000601f19601f8301169050919050565b60006133a882613346565b6133b28185613351565b93506133c2818560208601613362565b6133cb8161338c565b840191505092915050565b600060208201905081810360008301526133f0818461339d565b905092915050565b6000819050919050565b61340b816133f8565b811461341657600080fd5b50565b60008135905061342881613402565b92915050565b60006020828403121561344457613443613281565b5b600061345284828501613419565b91505092915050565b600073ffffffffffffffffffffffffffffffffffffffff82169050919050565b60006134868261345b565b9050919050565b6134968161347b565b82525050565b60006020820190506134b1600083018461348d565b92915050565b6134c08161347b565b81146134cb57600080fd5b50565b6000813590506134dd816134b7565b92915050565b600080604083850312156134fa576134f9613281565b5b6000613508858286016134ce565b925050602061351985828601613419565b9150509250929050565b60008060006060848603121561353c5761353b613281565b5b600061354a868287016134ce565b935050602061355b868287016134ce565b925050604061356c86828701613419565b9150509250925092565b600081519050919050565b600082825260208201905092915050565b6000819050602082019050919050565b6135ab8161347b565b82525050565b6135ba816133f8565b82525050565b6135c981613310565b82525050565b60a0820160008201516135e560008501826135a2565b5060208201516135f860208501826135b1565b50604082015161360b60408501826135c0565b50606082015161361e60608501826135b1565b50608082015161363160808501826135b1565b50505050565b600061364383836135cf565b60a08301905092915050565b6000602082019050919050565b600061366782613576565b6136718185613581565b935061367c83613592565b8060005b838110156136ad5781516136948882613637565b975061369f8361364f565b925050600181019050613680565b5085935050505092915050565b600060208201905081810360008301526136d4818461365c565b905092915050565b6000602082840312156136f2576136f1613281565b5b6000613700848285016134ce565b91505092915050565b6000819050919050565b600061372e6137296137248461345b565b613709565b61345b565b9050919050565b600061374082613713565b9050919050565b600061375282613735565b9050919050565b61376281613747565b82525050565b600060208201905061377d6000830184613759565b92915050565b61378c816133f8565b82525050565b60006020820190506137a76000830184613783565b92915050565b600080604083850312156137c4576137c3613281565b5b60006137d285828601613419565b92505060206137e385828601613419565b9150509250929050565b60a08201600082015161380360008501826135a2565b50602082015161381660208501826135b1565b50604082015161382960408501826135c0565b50606082015161383c60608501826135b1565b50608082015161384f60808501826135b1565b50505050565b600060a08201905061386a60008301846137ed565b92915050565b61387981613310565b811461388457600080fd5b50565b60008135905061389681613870565b92915050565b600080604083850312156138b3576138b2613281565b5b60006138c1858286016134ce565b92505060206138d285828601613887565b9150509250929050565b600060a0820190506138f1600083018861348d565b6138fe6020830187613783565b61390b604083018661331c565b6139186060830185613783565b6139256080830184613783565b9695505050505050565b600080fd5b600080fd5b7f4e487b7100000000000000000000000000000000000000000000000000000000600052604160045260246000fd5b6139718261338c565b810181811067ffffffffffffffff821117156139905761398f613939565b5b80604052505050565b60006139a3613277565b90506139af8282613968565b919050565b600067ffffffffffffffff8211156139cf576139ce613939565b5b6139d88261338c565b9050602081019050919050565b82818337600083830152505050565b6000613a07613a02846139b4565b613999565b905082815260208101848484011115613a2357613a22613934565b5b613a2e8482856139e5565b509392505050565b600082601f830112613a4b57613a4a61392f565b5b8135613a5b8482602086016139f4565b91505092915050565b60008060008060808587031215613a7e57613a7d613281565b5b6000613a8c878288016134ce565b9450506020613a9d878288016134ce565b9350506040613aae87828801613419565b925050606085013567ffffffffffffffff811115613acf57613ace613286565b5b613adb87828801613a36565b91505092959194509250565b60008060408385031215613afe57613afd613281565b5b6000613b0c858286016134ce565b9250506020613b1d858286016134ce565b9150509250929050565b7f4e487b7100000000000000000000000000000000000000000000000000000000600052602260045260246000fd5b60006002820490506001821680613b6e57607f821691505b602082108103613b8157613b80613b27565b5b50919050565b6000606082019050613b9c600083018661348d565b613ba96020830185613783565b613bb6604083018461348d565b949350505050565b7f4e487b7100000000000000000000000000000000000000000000000000000000600052603260045260246000fd5b7f4e487b7100000000000000000000000000000000000000000000000000000000600052601160045260246000fd5b6000613c27826133f8565b91507fffffffffffffffffffffffffffffffffffffffffffffffffffffffffffffffff8203613c5957613c58613bed565b5b600182019050919050565b7f5573657220616c726561647920696e697469616c697a65640000000000000000600082015250565b6000613c9a601883613351565b9150613ca582613c64565b602082019050919050565b60006020820190508181036000830152613cc981613c8d565b9050919050565b7f596f7520617265206e6f7420746865206f776e6572206f66207468697320686f60008201527f7573650000000000000000000000000000000000000000000000000000000000602082015250565b6000613d2c602383613351565b9150613d3782613cd0565b604082019050919050565b60006020820190508181036000830152613d5b81613d1f565b9050919050565b7f486f75736520646f6573206e6f74206578697374000000000000000000000000600082015250565b6000613d98601483613351565b9150613da382613d62565b602082019050919050565b60006020820190508181036000830152613dc781613d8b565b9050919050565b7f5072696365206d7573742062652067726561746572207468616e203000000000600082015250565b6000613e04601c83613351565b9150613e0f82613dce565b602082019050919050565b60006020820190508181036000830152613e3381613df7565b9050919050565b7f486f75736520697320616c7265616479206c6973746564000000000000000000600082015250565b6000613e70601783613351565b9150613e7b82613e3a565b602082019050919050565b60006020820190508181036000830152613e9f81613e63565b9050919050565b6000606082019050613ebb6000830186613783565b613ec86020830185613783565b613ed5604083018461348d565b949350505050565b600081905092915050565b6000613ef382613346565b613efd8185613edd565b9350613f0d818560208601613362565b80840191505092915050565b6000613f258285613ee8565b9150613f318284613ee8565b91508190509392505050565b7f486f757365206973206e6f74206c697374656400000000000000000000000000600082015250565b6000613f73601383613351565b9150613f7e82613f3d565b602082019050919050565b60006020820190508181036000830152613fa281613f66565b9050919050565b7f486f75736520707269636520616e64206c6973746564537461727454696d657360008201527f74616d70206e65656420746f20626520626967676572207468616e2030000000602082015250565b6000614005603d83613351565b915061401082613fa9565b604082019050919050565b6000602082019050818103600083015261403481613ff8565b9050919050565b7f596f752061726520746865206f776e6572206f66207468697320686f75736500600082015250565b6000614071601f83613351565b915061407c8261403b565b602082019050919050565b600060208201905081810360008301526140a081614064565b9050919050565b7f496e73756666696369656e742066756e64730000000000000000000000000000600082015250565b60006140dd601283613351565b91506140e8826140a7565b602082019050919050565b6000602082019050818103600083015261410c816140d0565b9050919050565b600061411e826133f8565b9150614129836133f8565b925082820390508181111561414157614140613bed565b5b92915050565b7f4e487b7100000000000000000000000000000000000000000000000000000000600052601260045260246000fd5b6000614181826133f8565b915061418c836133f8565b92508261419c5761419b614147565b5b828204905092915050565b60006141b2826133f8565b91506141bd836133f8565b92508282026141cb816133f8565b915082820484148315176141e2576141e1613bed565b5b5092915050565b60006040820190508181036000830152614203818561339d565b9050614212602083018461348d565b9392505050565b600081519050919050565b600082825260208201905092915050565b600061424082614219565b61424a8185614224565b935061425a818560208601613362565b6142638161338c565b840191505092915050565b6000608082019050614283600083018761348d565b614290602083018661348d565b61429d6040830185613783565b81810360608301526142af8184614235565b905095945050505050565b6000815190506142c9816132b7565b92915050565b6000602082840312156142e5576142e4613281565b5b60006142f3848285016142ba565b91505092915050565b6000604082019050614311600083018561348d565b61431e6020830184613783565b9392505050565b6000604082019050818103600083015261433f818561339d565b905061434e6020830184613783565b9392505050565b7f4e487b7100000000000000000000000000000000000000000000000000000000600052605160045260246000fdfea2646970667358221220e1c6dcc800b4dbe570505cdc6995fed5df2dddcdaa38044c10faa75cd28635fb64736f6c63430008140033",
    "linkReferences": {},
    "deployedLinkReferences": {}
}