{
    "_format": "hh-sol-artifact-1",
    "contractName": "BuyMyRoom",
    "sourceName": "contracts/BuyMyRoom.sol",
    "abi": [
        {
            "inputs": [],
            "stateMutability": "nonpayable",
            "type": "constructor"
        },
        {
            "inputs": [
                {
                    "internalType": "address",
                    "name": "sender",
                    "type": "address"
                },
                {
                    "internalType": "uint256",
                    "name": "tokenId",
                    "type": "uint256"
                },
                {
                    "internalType": "address",
                    "name": "owner",
                    "type": "address"
                }
            ],
            "name": "ERC721IncorrectOwner",
            "type": "error"
        },
        {
            "inputs": [
                {
                    "internalType": "address",
                    "name": "operator",
                    "type": "address"
                },
                {
                    "internalType": "uint256",
                    "name": "tokenId",
                    "type": "uint256"
                }
            ],
            "name": "ERC721InsufficientApproval",
            "type": "error"
        },
        {
            "inputs": [
                {
                    "internalType": "address",
                    "name": "approver",
                    "type": "address"
                }
            ],
            "name": "ERC721InvalidApprover",
            "type": "error"
        },
        {
            "inputs": [
                {
                    "internalType": "address",
                    "name": "operator",
                    "type": "address"
                }
            ],
            "name": "ERC721InvalidOperator",
            "type": "error"
        },
        {
            "inputs": [
                {
                    "internalType": "address",
                    "name": "owner",
                    "type": "address"
                }
            ],
            "name": "ERC721InvalidOwner",
            "type": "error"
        },
        {
            "inputs": [
                {
                    "internalType": "address",
                    "name": "receiver",
                    "type": "address"
                }
            ],
            "name": "ERC721InvalidReceiver",
            "type": "error"
        },
        {
            "inputs": [
                {
                    "internalType": "address",
                    "name": "sender",
                    "type": "address"
                }
            ],
            "name": "ERC721InvalidSender",
            "type": "error"
        },
        {
            "inputs": [
                {
                    "internalType": "uint256",
                    "name": "tokenId",
                    "type": "uint256"
                }
            ],
            "name": "ERC721NonexistentToken",
            "type": "error"
        },
        {
            "anonymous": false,
            "inputs": [
                {
                    "indexed": true,
                    "internalType": "address",
                    "name": "owner",
                    "type": "address"
                },
                {
                    "indexed": true,
                    "internalType": "address",
                    "name": "approved",
                    "type": "address"
                },
                {
                    "indexed": true,
                    "internalType": "uint256",
                    "name": "tokenId",
                    "type": "uint256"
                }
            ],
            "name": "Approval",
            "type": "event"
        },
        {
            "anonymous": false,
            "inputs": [
                {
                    "indexed": true,
                    "internalType": "address",
                    "name": "owner",
                    "type": "address"
                },
                {
                    "indexed": true,
                    "internalType": "address",
                    "name": "operator",
                    "type": "address"
                },
                {
                    "indexed": false,
                    "internalType": "bool",
                    "name": "approved",
                    "type": "bool"
                }
            ],
            "name": "ApprovalForAll",
            "type": "event"
        },
        {
            "anonymous": false,
            "inputs": [
                {
                    "indexed": false,
                    "internalType": "uint256",
                    "name": "tokenId",
                    "type": "uint256"
                },
                {
                    "indexed": false,
                    "internalType": "uint256",
                    "name": "price",
                    "type": "uint256"
                },
                {
                    "indexed": false,
                    "internalType": "address",
                    "name": "buyer",
                    "type": "address"
                }
            ],
            "name": "HouseBought",
            "type": "event"
        },
        {
            "anonymous": false,
            "inputs": [
                {
                    "indexed": false,
                    "internalType": "uint256",
                    "name": "tokenId",
                    "type": "uint256"
                },
                {
                    "indexed": false,
                    "internalType": "uint256",
                    "name": "price",
                    "type": "uint256"
                },
                {
                    "indexed": false,
                    "internalType": "address",
                    "name": "owner",
                    "type": "address"
                }
            ],
            "name": "HouseListed",
            "type": "event"
        },
        {
            "anonymous": false,
            "inputs": [
                {
                    "indexed": false,
                    "internalType": "uint256",
                    "name": "tokenId",
                    "type": "uint256"
                }
            ],
            "name": "HouseUnlisted",
            "type": "event"
        },
        {
            "anonymous": false,
            "inputs": [
                {
                    "indexed": true,
                    "internalType": "address",
                    "name": "from",
                    "type": "address"
                },
                {
                    "indexed": true,
                    "internalType": "address",
                    "name": "to",
                    "type": "address"
                },
                {
                    "indexed": true,
                    "internalType": "uint256",
                    "name": "tokenId",
                    "type": "uint256"
                }
            ],
            "name": "Transfer",
            "type": "event"
        },
        {
            "inputs": [],
            "name": "_tokenIdCounter",
            "outputs": [
                {
                    "internalType": "uint256",
                    "name": "",
                    "type": "uint256"
                }
            ],
            "stateMutability": "view",
            "type": "function"
        },
        {
            "inputs": [
                {
                    "internalType": "address",
                    "name": "to",
                    "type": "address"
                },
                {
                    "internalType": "uint256",
                    "name": "tokenId",
                    "type": "uint256"
                }
            ],
            "name": "approve",
            "outputs": [],
            "stateMutability": "nonpayable",
            "type": "function"
        },
        {
            "inputs": [
                {
                    "internalType": "address",
                    "name": "owner",
                    "type": "address"
                }
            ],
            "name": "balanceOf",
            "outputs": [
                {
                    "internalType": "uint256",
                    "name": "",
                    "type": "uint256"
                }
            ],
            "stateMutability": "view",
            "type": "function"
        },
        {
            "inputs": [
                {
                    "internalType": "uint256",
                    "name": "tokenId",
                    "type": "uint256"
                }
            ],
            "name": "buyHouse",
            "outputs": [
                {
                    "components": [
                        {
                            "internalType": "address",
                            "name": "owner",
                            "type": "address"
                        },
                        {
                            "internalType": "uint256",
                            "name": "tokenId",
                            "type": "uint256"
                        },
                        {
                            "internalType": "bool",
                            "name": "isListed",
                            "type": "bool"
                        },
                        {
                            "internalType": "uint256",
                            "name": "listedStartTimestamp",
                            "type": "uint256"
                        },
                        {
                            "internalType": "uint256",
                            "name": "price",
                            "type": "uint256"
                        },
                        {
                            "internalType": "bool",
                            "name": "token",
                            "type": "bool"
                        }
                    ],
                    "internalType": "struct BuyMyRoom.House",
                    "name": "",
                    "type": "tuple"
                }
            ],
            "stateMutability": "payable",
            "type": "function"
        },
        {
            "inputs": [
                {
                    "internalType": "uint256",
                    "name": "tokenId",
                    "type": "uint256"
                }
            ],
            "name": "buyHouseByERC20",
            "outputs": [
                {
                    "components": [
                        {
                            "internalType": "address",
                            "name": "owner",
                            "type": "address"
                        },
                        {
                            "internalType": "uint256",
                            "name": "tokenId",
                            "type": "uint256"
                        },
                        {
                            "internalType": "bool",
                            "name": "isListed",
                            "type": "bool"
                        },
                        {
                            "internalType": "uint256",
                            "name": "listedStartTimestamp",
                            "type": "uint256"
                        },
                        {
                            "internalType": "uint256",
                            "name": "price",
                            "type": "uint256"
                        },
                        {
                            "internalType": "bool",
                            "name": "token",
                            "type": "bool"
                        }
                    ],
                    "internalType": "struct BuyMyRoom.House",
                    "name": "",
                    "type": "tuple"
                }
            ],
            "stateMutability": "payable",
            "type": "function"
        },
        {
            "inputs": [],
            "name": "feeRate",
            "outputs": [
                {
                    "internalType": "uint256",
                    "name": "",
                    "type": "uint256"
                }
            ],
            "stateMutability": "view",
            "type": "function"
        },
        {
            "inputs": [
                {
                    "internalType": "uint256",
                    "name": "tokenId",
                    "type": "uint256"
                }
            ],
            "name": "getApproved",
            "outputs": [
                {
                    "internalType": "address",
                    "name": "",
                    "type": "address"
                }
            ],
            "stateMutability": "view",
            "type": "function"
        },
        {
            "inputs": [],
            "name": "getMyHouses",
            "outputs": [
                {
                    "components": [
                        {
                            "internalType": "address",
                            "name": "owner",
                            "type": "address"
                        },
                        {
                            "internalType": "uint256",
                            "name": "tokenId",
                            "type": "uint256"
                        },
                        {
                            "internalType": "bool",
                            "name": "isListed",
                            "type": "bool"
                        },
                        {
                            "internalType": "uint256",
                            "name": "listedStartTimestamp",
                            "type": "uint256"
                        },
                        {
                            "internalType": "uint256",
                            "name": "price",
                            "type": "uint256"
                        },
                        {
                            "internalType": "bool",
                            "name": "token",
                            "type": "bool"
                        }
                    ],
                    "internalType": "struct BuyMyRoom.House[]",
                    "name": "",
                    "type": "tuple[]"
                }
            ],
            "stateMutability": "view",
            "type": "function"
        },
        {
            "inputs": [],
            "name": "getMyListingHouses",
            "outputs": [
                {
                    "components": [
                        {
                            "internalType": "address",
                            "name": "owner",
                            "type": "address"
                        },
                        {
                            "internalType": "uint256",
                            "name": "tokenId",
                            "type": "uint256"
                        },
                        {
                            "internalType": "bool",
                            "name": "isListed",
                            "type": "bool"
                        },
                        {
                            "internalType": "uint256",
                            "name": "listedStartTimestamp",
                            "type": "uint256"
                        },
                        {
                            "internalType": "uint256",
                            "name": "price",
                            "type": "uint256"
                        },
                        {
                            "internalType": "bool",
                            "name": "token",
                            "type": "bool"
                        }
                    ],
                    "internalType": "struct BuyMyRoom.House[]",
                    "name": "",
                    "type": "tuple[]"
                }
            ],
            "stateMutability": "view",
            "type": "function"
        },
        {
            "inputs": [],
            "name": "getTotalHouses",
            "outputs": [
                {
                    "components": [
                        {
                            "internalType": "address",
                            "name": "owner",
                            "type": "address"
                        },
                        {
                            "internalType": "uint256",
                            "name": "tokenId",
                            "type": "uint256"
                        },
                        {
                            "internalType": "bool",
                            "name": "isListed",
                            "type": "bool"
                        },
                        {
                            "internalType": "uint256",
                            "name": "listedStartTimestamp",
                            "type": "uint256"
                        },
                        {
                            "internalType": "uint256",
                            "name": "price",
                            "type": "uint256"
                        },
                        {
                            "internalType": "bool",
                            "name": "token",
                            "type": "bool"
                        }
                    ],
                    "internalType": "struct BuyMyRoom.House[]",
                    "name": "",
                    "type": "tuple[]"
                }
            ],
            "stateMutability": "view",
            "type": "function"
        },
        {
            "inputs": [],
            "name": "getTotalListingHouses",
            "outputs": [
                {
                    "components": [
                        {
                            "internalType": "address",
                            "name": "owner",
                            "type": "address"
                        },
                        {
                            "internalType": "uint256",
                            "name": "tokenId",
                            "type": "uint256"
                        },
                        {
                            "internalType": "bool",
                            "name": "isListed",
                            "type": "bool"
                        },
                        {
                            "internalType": "uint256",
                            "name": "listedStartTimestamp",
                            "type": "uint256"
                        },
                        {
                            "internalType": "uint256",
                            "name": "price",
                            "type": "uint256"
                        },
                        {
                            "internalType": "bool",
                            "name": "token",
                            "type": "bool"
                        }
                    ],
                    "internalType": "struct BuyMyRoom.House[]",
                    "name": "",
                    "type": "tuple[]"
                }
            ],
            "stateMutability": "view",
            "type": "function"
        },
        {
            "inputs": [],
            "name": "helloworld",
            "outputs": [
                {
                    "internalType": "string",
                    "name": "",
                    "type": "string"
                }
            ],
            "stateMutability": "pure",
            "type": "function"
        },
        {
            "inputs": [
                {
                    "internalType": "uint256",
                    "name": "",
                    "type": "uint256"
                }
            ],
            "name": "houses",
            "outputs": [
                {
                    "internalType": "address",
                    "name": "owner",
                    "type": "address"
                },
                {
                    "internalType": "uint256",
                    "name": "tokenId",
                    "type": "uint256"
                },
                {
                    "internalType": "bool",
                    "name": "isListed",
                    "type": "bool"
                },
                {
                    "internalType": "uint256",
                    "name": "listedStartTimestamp",
                    "type": "uint256"
                },
                {
                    "internalType": "uint256",
                    "name": "price",
                    "type": "uint256"
                },
                {
                    "internalType": "bool",
                    "name": "token",
                    "type": "bool"
                }
            ],
            "stateMutability": "view",
            "type": "function"
        },
        {
            "inputs": [],
            "name": "initUserHouse",
            "outputs": [],
            "stateMutability": "nonpayable",
            "type": "function"
        },
        {
            "inputs": [
                {
                    "internalType": "address",
                    "name": "",
                    "type": "address"
                }
            ],
            "name": "initUsers",
            "outputs": [
                {
                    "internalType": "bool",
                    "name": "",
                    "type": "bool"
                }
            ],
            "stateMutability": "view",
            "type": "function"
        },
        {
            "inputs": [
                {
                    "internalType": "address",
                    "name": "owner",
                    "type": "address"
                },
                {
                    "internalType": "address",
                    "name": "operator",
                    "type": "address"
                }
            ],
            "name": "isApprovedForAll",
            "outputs": [
                {
                    "internalType": "bool",
                    "name": "",
                    "type": "bool"
                }
            ],
            "stateMutability": "view",
            "type": "function"
        },
        {
            "inputs": [
                {
                    "internalType": "uint256",
                    "name": "tokenId",
                    "type": "uint256"
                },
                {
                    "internalType": "uint256",
                    "name": "price",
                    "type": "uint256"
                },
                {
                    "internalType": "bool",
                    "name": "token",
                    "type": "bool"
                }
            ],
            "name": "listHouse",
            "outputs": [
                {
                    "components": [
                        {
                            "internalType": "address",
                            "name": "owner",
                            "type": "address"
                        },
                        {
                            "internalType": "uint256",
                            "name": "tokenId",
                            "type": "uint256"
                        },
                        {
                            "internalType": "bool",
                            "name": "isListed",
                            "type": "bool"
                        },
                        {
                            "internalType": "uint256",
                            "name": "listedStartTimestamp",
                            "type": "uint256"
                        },
                        {
                            "internalType": "uint256",
                            "name": "price",
                            "type": "uint256"
                        },
                        {
                            "internalType": "bool",
                            "name": "token",
                            "type": "bool"
                        }
                    ],
                    "internalType": "struct BuyMyRoom.House",
                    "name": "",
                    "type": "tuple"
                }
            ],
            "stateMutability": "nonpayable",
            "type": "function"
        },
        {
            "inputs": [],
            "name": "myERC20",
            "outputs": [
                {
                    "internalType": "contract MyERC20",
                    "name": "",
                    "type": "address"
                }
            ],
            "stateMutability": "view",
            "type": "function"
        },
        {
            "inputs": [],
            "name": "name",
            "outputs": [
                {
                    "internalType": "string",
                    "name": "",
                    "type": "string"
                }
            ],
            "stateMutability": "view",
            "type": "function"
        },
        {
            "inputs": [
                {
                    "internalType": "uint256",
                    "name": "tokenId",
                    "type": "uint256"
                }
            ],
            "name": "ownerOf",
            "outputs": [
                {
                    "internalType": "address",
                    "name": "",
                    "type": "address"
                }
            ],
            "stateMutability": "view",
            "type": "function"
        },
        {
            "inputs": [],
            "name": "platform",
            "outputs": [
                {
                    "internalType": "address",
                    "name": "",
                    "type": "address"
                }
            ],
            "stateMutability": "view",
            "type": "function"
        },
        {
            "inputs": [
                {
                    "internalType": "address",
                    "name": "from",
                    "type": "address"
                },
                {
                    "internalType": "address",
                    "name": "to",
                    "type": "address"
                },
                {
                    "internalType": "uint256",
                    "name": "tokenId",
                    "type": "uint256"
                }
            ],
            "name": "safeTransferFrom",
            "outputs": [],
            "stateMutability": "nonpayable",
            "type": "function"
        },
        {
            "inputs": [
                {
                    "internalType": "address",
                    "name": "from",
                    "type": "address"
                },
                {
                    "internalType": "address",
                    "name": "to",
                    "type": "address"
                },
                {
                    "internalType": "uint256",
                    "name": "tokenId",
                    "type": "uint256"
                },
                {
                    "internalType": "bytes",
                    "name": "data",
                    "type": "bytes"
                }
            ],
            "name": "safeTransferFrom",
            "outputs": [],
            "stateMutability": "nonpayable",
            "type": "function"
        },
        {
            "inputs": [
                {
                    "internalType": "address",
                    "name": "operator",
                    "type": "address"
                },
                {
                    "internalType": "bool",
                    "name": "approved",
                    "type": "bool"
                }
            ],
            "name": "setApprovalForAll",
            "outputs": [],
            "stateMutability": "nonpayable",
            "type": "function"
        },
        {
            "inputs": [
                {
                    "internalType": "bytes4",
                    "name": "interfaceId",
                    "type": "bytes4"
                }
            ],
            "name": "supportsInterface",
            "outputs": [
                {
                    "internalType": "bool",
                    "name": "",
                    "type": "bool"
                }
            ],
            "stateMutability": "view",
            "type": "function"
        },
        {
            "inputs": [],
            "name": "symbol",
            "outputs": [
                {
                    "internalType": "string",
                    "name": "",
                    "type": "string"
                }
            ],
            "stateMutability": "view",
            "type": "function"
        },
        {
            "inputs": [
                {
                    "internalType": "uint256",
                    "name": "tokenId",
                    "type": "uint256"
                }
            ],
            "name": "tokenURI",
            "outputs": [
                {
                    "internalType": "string",
                    "name": "",
                    "type": "string"
                }
            ],
            "stateMutability": "view",
            "type": "function"
        },
        {
            "inputs": [
                {
                    "internalType": "address",
                    "name": "from",
                    "type": "address"
                },
                {
                    "internalType": "address",
                    "name": "to",
                    "type": "address"
                },
                {
                    "internalType": "uint256",
                    "name": "tokenId",
                    "type": "uint256"
                }
            ],
            "name": "transferFrom",
            "outputs": [],
            "stateMutability": "nonpayable",
            "type": "function"
        },
        {
            "inputs": [
                {
                    "internalType": "uint256",
                    "name": "tokenId",
                    "type": "uint256"
                }
            ],
            "name": "unListHouse",
            "outputs": [
                {
                    "components": [
                        {
                            "internalType": "address",
                            "name": "owner",
                            "type": "address"
                        },
                        {
                            "internalType": "uint256",
                            "name": "tokenId",
                            "type": "uint256"
                        },
                        {
                            "internalType": "bool",
                            "name": "isListed",
                            "type": "bool"
                        },
                        {
                            "internalType": "uint256",
                            "name": "listedStartTimestamp",
                            "type": "uint256"
                        },
                        {
                            "internalType": "uint256",
                            "name": "price",
                            "type": "uint256"
                        },
                        {
                            "internalType": "bool",
                            "name": "token",
                            "type": "bool"
                        }
                    ],
                    "internalType": "struct BuyMyRoom.House",
                    "name": "",
                    "type": "tuple"
                }
            ],
            "stateMutability": "nonpayable",
            "type": "function"
        }
    ],
    "bytecode": "0x60806040523480156200001157600080fd5b506040518060400160405280600981526020017f4275794d79526f6f6d00000000000000000000000000000000000000000000008152506040518060400160405280600381526020017f424d52000000000000000000000000000000000000000000000000000000000081525081600090816200008f9190620003ef565b508060019081620000a19190620003ef565b505050600060088190555033600960006101000a81548173ffffffffffffffffffffffffffffffffffffffff021916908373ffffffffffffffffffffffffffffffffffffffff1602179055506001600a81905550604051620001039062000167565b604051809103906000f08015801562000120573d6000803e3d6000fd5b50600b60006101000a81548173ffffffffffffffffffffffffffffffffffffffff021916908373ffffffffffffffffffffffffffffffffffffffff160217905550620004d6565b6113f480620050b083390190565b600081519050919050565b7f4e487b7100000000000000000000000000000000000000000000000000000000600052604160045260246000fd5b7f4e487b7100000000000000000000000000000000000000000000000000000000600052602260045260246000fd5b60006002820490506001821680620001f757607f821691505b6020821081036200020d576200020c620001af565b5b50919050565b60008190508160005260206000209050919050565b60006020601f8301049050919050565b600082821b905092915050565b600060088302620002777fffffffffffffffffffffffffffffffffffffffffffffffffffffffffffffffff8262000238565b62000283868362000238565b95508019841693508086168417925050509392505050565b6000819050919050565b6000819050919050565b6000620002d0620002ca620002c4846200029b565b620002a5565b6200029b565b9050919050565b6000819050919050565b620002ec83620002af565b62000304620002fb82620002d7565b84845462000245565b825550505050565b600090565b6200031b6200030c565b62000328818484620002e1565b505050565b5b8181101562000350576200034460008262000311565b6001810190506200032e565b5050565b601f8211156200039f57620003698162000213565b620003748462000228565b8101602085101562000384578190505b6200039c620003938562000228565b8301826200032d565b50505b505050565b600082821c905092915050565b6000620003c460001984600802620003a4565b1980831691505092915050565b6000620003df8383620003b1565b9150826002028217905092915050565b620003fa8262000175565b67ffffffffffffffff81111562000416576200041562000180565b5b620004228254620001de565b6200042f82828562000354565b600060209050601f83116001811462000467576000841562000452578287015190505b6200045e8582620003d1565b865550620004ce565b601f198416620004778662000213565b60005b82811015620004a1578489015182556001820191506020850194506020810190506200047a565b86831015620004c15784890151620004bd601f891682620003b1565b8355505b6001600288020188555050505b505050505050565b614bca80620004e66000396000f3fe6080604052600436106101c25760003560e01c806370a08231116100f7578063b035ccb611610095578063c87b56dd11610064578063c87b56dd14610664578063e985e9c5146106a1578063eddc4269146106de578063f88e796a1461070e576101c2565b8063b035ccb6146105b5578063b14f1afd146105e5578063b88d4fde14610610578063bf1d36c714610639576101c2565b806395d89b41116100d157806395d89b41146104f4578063978bbdb91461051f578063a22cb4651461054a578063aeda852f14610573576101c2565b806370a082311461047557806384c4bd4b146104b257806389748789146104dd576101c2565b806342842e0e1161016457806356fe0edb1161013e57806356fe0edb146103a55780636352211e146103e25780636d3739c41461041f5780636f0672cb1461044a576101c2565b806342842e0e146103145780634b9bdb701461033d5780634bde38c81461037a576101c2565b8063095ea7b3116101a0578063095ea7b31461026c57806323b872dd146102955780632f2f4859146102be57806339d95f9f146102e9576101c2565b806301ffc9a7146101c757806306fdde0314610204578063081812fc1461022f575b600080fd5b3480156101d357600080fd5b506101ee60048036038101906101e99190613985565b61074b565b6040516101fb91906139cd565b60405180910390f35b34801561021057600080fd5b5061021961082d565b6040516102269190613a78565b60405180910390f35b34801561023b57600080fd5b5061025660048036038101906102519190613ad0565b6108bf565b6040516102639190613b3e565b60405180910390f35b34801561027857600080fd5b50610293600480360381019061028e9190613b85565b6108db565b005b3480156102a157600080fd5b506102bc60048036038101906102b79190613bc5565b6108f1565b005b3480156102ca57600080fd5b506102d36109f3565b6040516102e09190613a78565b60405180910390f35b3480156102f557600080fd5b506102fe610a30565b60405161030b9190613d6f565b60405180910390f35b34801561032057600080fd5b5061033b60048036038101906103369190613bc5565b610b9a565b005b34801561034957600080fd5b50610364600480360381019061035f9190613d91565b610bba565b60405161037191906139cd565b60405180910390f35b34801561038657600080fd5b5061038f610bda565b60405161039c9190613b3e565b60405180910390f35b3480156103b157600080fd5b506103cc60048036038101906103c79190613dea565b610c00565b6040516103d99190613eb8565b60405180910390f35b3480156103ee57600080fd5b5061040960048036038101906104049190613ad0565b610f69565b6040516104169190613b3e565b60405180910390f35b34801561042b57600080fd5b50610434610f7b565b6040516104419190613f32565b60405180910390f35b34801561045657600080fd5b5061045f610fa1565b60405161046c9190613d6f565b60405180910390f35b34801561048157600080fd5b5061049c60048036038101906104979190613d91565b61119e565b6040516104a99190613f5c565b60405180910390f35b3480156104be57600080fd5b506104c7611258565b6040516104d49190613f5c565b60405180910390f35b3480156104e957600080fd5b506104f261125e565b005b34801561050057600080fd5b50610509611396565b6040516105169190613a78565b60405180910390f35b34801561052b57600080fd5b50610534611428565b6040516105419190613f5c565b60405180910390f35b34801561055657600080fd5b50610571600480360381019061056c9190613f77565b61142e565b005b34801561057f57600080fd5b5061059a60048036038101906105959190613ad0565b611444565b6040516105ac96959493929190613fb7565b60405180910390f35b6105cf60048036038101906105ca9190613ad0565b6114ba565b6040516105dc9190613eb8565b60405180910390f35b3480156105f157600080fd5b506105fa6119c0565b6040516106079190613d6f565b60405180910390f35b34801561061c57600080fd5b506106376004803603810190610632919061414d565b611b95565b005b34801561064557600080fd5b5061064e611bb2565b60405161065b9190613d6f565b60405180910390f35b34801561067057600080fd5b5061068b60048036038101906106869190613ad0565b611e2d565b6040516106989190613a78565b60405180910390f35b3480156106ad57600080fd5b506106c860048036038101906106c391906141d0565b611e96565b6040516106d591906139cd565b60405180910390f35b6106f860048036038101906106f39190613ad0565b611f2a565b6040516107059190613eb8565b60405180910390f35b34801561071a57600080fd5b5061073560048036038101906107309190613ad0565b61246a565b6040516107429190613eb8565b60405180910390f35b60007f80ac58cd000000000000000000000000000000000000000000000000000000007bffffffffffffffffffffffffffffffffffffffffffffffffffffffff1916827bffffffffffffffffffffffffffffffffffffffffffffffffffffffff1916148061081657507f5b5e139f000000000000000000000000000000000000000000000000000000007bffffffffffffffffffffffffffffffffffffffffffffffffffffffff1916827bffffffffffffffffffffffffffffffffffffffffffffffffffffffff1916145b806108265750610825826126e7565b5b9050919050565b60606000805461083c9061423f565b80601f01602080910402602001604051908101604052809291908181526020018280546108689061423f565b80156108b55780601f1061088a576101008083540402835291602001916108b5565b820191906000526020600020905b81548152906001019060200180831161089857829003601f168201915b5050505050905090565b60006108ca82612751565b506108d4826127d9565b9050919050565b6108ed82826108e8612816565b61281e565b5050565b600073ffffffffffffffffffffffffffffffffffffffff168273ffffffffffffffffffffffffffffffffffffffff16036109635760006040517f64a0ae9200000000000000000000000000000000000000000000000000000000815260040161095a9190613b3e565b60405180910390fd5b60006109778383610972612816565b612830565b90508373ffffffffffffffffffffffffffffffffffffffff168173ffffffffffffffffffffffffffffffffffffffff16146109ed578382826040517f64283d7b0000000000000000000000000000000000000000000000000000000081526004016109e493929190614270565b60405180910390fd5b50505050565b60606040518060400160405280600b81526020017f68656c6c6f20776f726c64000000000000000000000000000000000000000000815250905090565b6060600060085467ffffffffffffffff811115610a5057610a4f614022565b5b604051908082528060200260200182016040528015610a8957816020015b610a766138bf565b815260200190600190039081610a6e5790505b50905060005b600854811015610b9257600660008281526020019081526020016000206040518060c00160405290816000820160009054906101000a900473ffffffffffffffffffffffffffffffffffffffff1673ffffffffffffffffffffffffffffffffffffffff1673ffffffffffffffffffffffffffffffffffffffff168152602001600182015481526020016002820160009054906101000a900460ff1615151515815260200160038201548152602001600482015481526020016005820160009054906101000a900460ff161515151581525050828281518110610b7457610b736142a7565b5b60200260200101819052508080610b8a90614305565b915050610a8f565b508091505090565b610bb583838360405180602001604052806000815250611b95565b505050565b60076020528060005260406000206000915054906101000a900460ff1681565b600960009054906101000a900473ffffffffffffffffffffffffffffffffffffffff1681565b610c086138bf565b3373ffffffffffffffffffffffffffffffffffffffff16610c2885610f69565b73ffffffffffffffffffffffffffffffffffffffff1614610c7e576040517f08c379a0000000000000000000000000000000000000000000000000000000008152600401610c75906143bf565b60405180910390fd5b600073ffffffffffffffffffffffffffffffffffffffff166006600086815260200190815260200160002060000160009054906101000a900473ffffffffffffffffffffffffffffffffffffffff1673ffffffffffffffffffffffffffffffffffffffff1603610d23576040517f08c379a0000000000000000000000000000000000000000000000000000000008152600401610d1a9061442b565b60405180910390fd5b60008311610d66576040517f08c379a0000000000000000000000000000000000000000000000000000000008152600401610d5d90614497565b60405180910390fd5b6006600085815260200190815260200160002060020160009054906101000a900460ff1615610dca576040517f08c379a0000000000000000000000000000000000000000000000000000000008152600401610dc190614503565b60405180910390fd5b60016006600086815260200190815260200160002060020160006101000a81548160ff021916908315150217905550826006600086815260200190815260200160002060040181905550816006600086815260200190815260200160002060050160006101000a81548160ff0219169083151502179055504260066000868152602001908152602001600020600301819055507f60b3e540896cf4a419e7b7274a1f1282223f5d92ca6f0152cf820fe457fb4843848433604051610e9093929190614523565b60405180910390a1600660008581526020019081526020016000206040518060c00160405290816000820160009054906101000a900473ffffffffffffffffffffffffffffffffffffffff1673ffffffffffffffffffffffffffffffffffffffff1673ffffffffffffffffffffffffffffffffffffffff168152602001600182015481526020016002820160009054906101000a900460ff1615151515815260200160038201548152602001600482015481526020016005820160009054906101000a900460ff16151515158152505090509392505050565b6000610f7482612751565b9050919050565b600b60009054906101000a900473ffffffffffffffffffffffffffffffffffffffff1681565b60606000805b600854811015610ffc576006600082815260200190815260200160002060020160009054906101000a900460ff1615610fe9578180610fe590614305565b9250505b8080610ff490614305565b915050610fa7565b5060008167ffffffffffffffff81111561101957611018614022565b5b60405190808252806020026020018201604052801561105257816020015b61103f6138bf565b8152602001906001900390816110375790505b5090506000805b600854811015611194576006600082815260200190815260200160002060020160009054906101000a900460ff161561118157600660008281526020019081526020016000206040518060c00160405290816000820160009054906101000a900473ffffffffffffffffffffffffffffffffffffffff1673ffffffffffffffffffffffffffffffffffffffff1673ffffffffffffffffffffffffffffffffffffffff168152602001600182015481526020016002820160009054906101000a900460ff1615151515815260200160038201548152602001600482015481526020016005820160009054906101000a900460ff161515151581525050838381518110611167576111666142a7565b5b6020026020010181905250818061117d90614305565b9250505b808061118c90614305565b915050611059565b5081935050505090565b60008073ffffffffffffffffffffffffffffffffffffffff168273ffffffffffffffffffffffffffffffffffffffff16036112115760006040517f89c62b640000000000000000000000000000000000000000000000000000000081526004016112089190613b3e565b60405180910390fd5b600360008373ffffffffffffffffffffffffffffffffffffffff1673ffffffffffffffffffffffffffffffffffffffff168152602001908152602001600020549050919050565b60085481565b600760003373ffffffffffffffffffffffffffffffffffffffff1673ffffffffffffffffffffffffffffffffffffffff16815260200190815260200160002060009054906101000a900460ff16156112eb576040517f08c379a00000000000000000000000000000000000000000000000000000000081526004016112e2906145a6565b60405180910390fd5b6112f433612a4a565b6112fd33612a4a565b6001600760003373ffffffffffffffffffffffffffffffffffffffff1673ffffffffffffffffffffffffffffffffffffffff16815260200190815260200160002060006101000a81548160ff0219169083151502179055506113946040518060400160405280601481526020017f496e697469616c697a656420757365723a20257300000000000000000000000081525033612bbc565b565b6060600180546113a59061423f565b80601f01602080910402602001604051908101604052809291908181526020018280546113d19061423f565b801561141e5780601f106113f35761010080835404028352916020019161141e565b820191906000526020600020905b81548152906001019060200180831161140157829003601f168201915b5050505050905090565b600a5481565b611440611439612816565b8383612c58565b5050565b60066020528060005260406000206000915090508060000160009054906101000a900473ffffffffffffffffffffffffffffffffffffffff16908060010154908060020160009054906101000a900460ff16908060030154908060040154908060050160009054906101000a900460ff16905086565b6114c26138bf565b6006600083815260200190815260200160002060020160009054906101000a900460ff16611525576040517f08c379a000000000000000000000000000000000000000000000000000000000815260040161151c90614612565b60405180910390fd5b60006006600084815260200190815260200160002060040154118015611561575060006006600084815260200190815260200160002060030154115b6115a0576040517f08c379a0000000000000000000000000000000000000000000000000000000008152600401611597906146a4565b60405180910390fd5b3373ffffffffffffffffffffffffffffffffffffffff166115c083610f69565b73ffffffffffffffffffffffffffffffffffffffff1603611616576040517f08c379a000000000000000000000000000000000000000000000000000000000815260040161160d90614710565b60405180910390fd5b60006006600084815260200190815260200160002060000160009054906101000a900473ffffffffffffffffffffffffffffffffffffffff16905060006006600085815260200190815260200160002060040154905080600b60009054906101000a900473ffffffffffffffffffffffffffffffffffffffff1673ffffffffffffffffffffffffffffffffffffffff166370a08231336040518263ffffffff1660e01b81526004016116c89190613b3e565b602060405180830381865afa1580156116e5573d6000803e3d6000fd5b505050506040513d601f19601f820116820180604052508101906117099190614745565b101561174a576040517f08c379a0000000000000000000000000000000000000000000000000000000008152600401611741906147be565b60405180910390fd5b600b60009054906101000a900473ffffffffffffffffffffffffffffffffffffffff1673ffffffffffffffffffffffffffffffffffffffff166323b872dd3384846040518463ffffffff1660e01b81526004016117a9939291906147de565b6020604051808303816000875af11580156117c8573d6000803e3d6000fd5b505050506040513d601f19601f820116820180604052508101906117ec919061482a565b506117f8823386612dc7565b336006600086815260200190815260200160002060000160006101000a81548173ffffffffffffffffffffffffffffffffffffffff021916908373ffffffffffffffffffffffffffffffffffffffff16021790555060006006600086815260200190815260200160002060020160006101000a81548160ff02191690831515021790555060006006600086815260200190815260200160002060040181905550600060066000868152602001908152602001600020600301819055507fbf53448f4289b0081032c4d84e812945965589c060691ca37a21ad4c2a90c8ba8482336040516118e793929190614523565b60405180910390a1600660008581526020019081526020016000206040518060c00160405290816000820160009054906101000a900473ffffffffffffffffffffffffffffffffffffffff1673ffffffffffffffffffffffffffffffffffffffff1673ffffffffffffffffffffffffffffffffffffffff168152602001600182015481526020016002820160009054906101000a900460ff1615151515815260200160038201548152602001600482015481526020016005820160009054906101000a900460ff16151515158152505092505050919050565b606060006119cd3361119e565b905060008167ffffffffffffffff8111156119eb576119ea614022565b5b604051908082528060200260200182016040528015611a2457816020015b611a116138bf565b815260200190600190039081611a095790505b50905060008203611a39578092505050611b92565b6000805b600854811015611b8a573373ffffffffffffffffffffffffffffffffffffffff16611a6782610f69565b73ffffffffffffffffffffffffffffffffffffffff1603611b7757600660008281526020019081526020016000206040518060c00160405290816000820160009054906101000a900473ffffffffffffffffffffffffffffffffffffffff1673ffffffffffffffffffffffffffffffffffffffff1673ffffffffffffffffffffffffffffffffffffffff168152602001600182015481526020016002820160009054906101000a900460ff1615151515815260200160038201548152602001600482015481526020016005820160009054906101000a900460ff161515151581525050838381518110611b5d57611b5c6142a7565b5b60200260200101819052508180611b7390614305565b9250505b8080611b8290614305565b915050611a3d565b508193505050505b90565b611ba08484846108f1565b611bac84848484612f34565b50505050565b60606000805b600854811015611c4c573373ffffffffffffffffffffffffffffffffffffffff16611be282610f69565b73ffffffffffffffffffffffffffffffffffffffff16148015611c2557506006600082815260200190815260200160002060020160009054906101000a900460ff165b15611c39578180611c3590614305565b9250505b8080611c4490614305565b915050611bb8565b5060008167ffffffffffffffff811115611c6957611c68614022565b5b604051908082528060200260200182016040528015611ca257816020015b611c8f6138bf565b815260200190600190039081611c875790505b5090506000805b600854811015611e23573373ffffffffffffffffffffffffffffffffffffffff16611cd382610f69565b73ffffffffffffffffffffffffffffffffffffffff16148015611d1657506006600082815260200190815260200160002060020160009054906101000a900460ff165b15611e1057600660008281526020019081526020016000206040518060c00160405290816000820160009054906101000a900473ffffffffffffffffffffffffffffffffffffffff1673ffffffffffffffffffffffffffffffffffffffff1673ffffffffffffffffffffffffffffffffffffffff168152602001600182015481526020016002820160009054906101000a900460ff1615151515815260200160038201548152602001600482015481526020016005820160009054906101000a900460ff161515151581525050838381518110611df657611df56142a7565b5b60200260200101819052508180611e0c90614305565b9250505b8080611e1b90614305565b915050611ca9565b5081935050505090565b6060611e3882612751565b506000611e436130eb565b90506000815111611e635760405180602001604052806000815250611e8e565b80611e6d84613102565b604051602001611e7e929190614893565b6040516020818303038152906040525b915050919050565b6000600560008473ffffffffffffffffffffffffffffffffffffffff1673ffffffffffffffffffffffffffffffffffffffff16815260200190815260200160002060008373ffffffffffffffffffffffffffffffffffffffff1673ffffffffffffffffffffffffffffffffffffffff16815260200190815260200160002060009054906101000a900460ff16905092915050565b611f326138bf565b6006600083815260200190815260200160002060020160009054906101000a900460ff16611f95576040517f08c379a0000000000000000000000000000000000000000000000000000000008152600401611f8c90614612565b60405180910390fd5b60006006600084815260200190815260200160002060040154118015611fd1575060006006600084815260200190815260200160002060030154115b612010576040517f08c379a0000000000000000000000000000000000000000000000000000000008152600401612007906146a4565b60405180910390fd5b3373ffffffffffffffffffffffffffffffffffffffff1661203083610f69565b73ffffffffffffffffffffffffffffffffffffffff1603612086576040517f08c379a000000000000000000000000000000000000000000000000000000000815260040161207d90614710565b60405180910390fd5b60066000838152602001908152602001600020600401543410156120df576040517f08c379a00000000000000000000000000000000000000000000000000000000081526004016120d690614903565b60405180910390fd5b60006006600084815260200190815260200160002060000160009054906101000a900473ffffffffffffffffffffffffffffffffffffffff16905060006006600085815260200190815260200160002060040154905060006006600086815260200190815260200160002060030154426121599190614923565b905060006064600a5484603c856121709190614986565b61217a91906149b7565b61218491906149b7565b61218e9190614986565b9050600060646014600a54866121a491906149b7565b6121ae91906149b7565b6121b89190614986565b9050808211156121c6578091505b600960009054906101000a900473ffffffffffffffffffffffffffffffffffffffff1673ffffffffffffffffffffffffffffffffffffffff166108fc839081150290604051600060405180830381858888f1935050505015801561222e573d6000803e3d6000fd5b508473ffffffffffffffffffffffffffffffffffffffff166108fc83866122559190614923565b9081150290604051600060405180830381858888f19350505050158015612280573d6000803e3d6000fd5b5061228c853389612dc7565b336006600089815260200190815260200160002060000160006101000a81548173ffffffffffffffffffffffffffffffffffffffff021916908373ffffffffffffffffffffffffffffffffffffffff16021790555060006006600089815260200190815260200160002060020160006101000a81548160ff02191690831515021790555060006006600089815260200190815260200160002060040181905550600060066000898152602001908152602001600020600301819055507fbf53448f4289b0081032c4d84e812945965589c060691ca37a21ad4c2a90c8ba87670de0b6b3a76400008661237e9190614986565b3360405161238e93929190614523565b60405180910390a1600660008881526020019081526020016000206040518060c00160405290816000820160009054906101000a900473ffffffffffffffffffffffffffffffffffffffff1673ffffffffffffffffffffffffffffffffffffffff1673ffffffffffffffffffffffffffffffffffffffff168152602001600182015481526020016002820160009054906101000a900460ff1615151515815260200160038201548152602001600482015481526020016005820160009054906101000a900460ff16151515158152505095505050505050919050565b6124726138bf565b3373ffffffffffffffffffffffffffffffffffffffff1661249283610f69565b73ffffffffffffffffffffffffffffffffffffffff16146124e8576040517f08c379a00000000000000000000000000000000000000000000000000000000081526004016124df906143bf565b60405180910390fd5b6006600083815260200190815260200160002060020160009054906101000a900460ff1661254b576040517f08c379a000000000000000000000000000000000000000000000000000000000815260040161254290614612565b60405180910390fd5b60006006600084815260200190815260200160002060020160006101000a81548160ff0219169083151502179055506000600660008481526020019081526020016000206004018190555060006006600084815260200190815260200160002060050160006101000a81548160ff021916908315150217905550600060066000848152602001908152602001600020600301819055507f9531c37610754380791bcd3dc816332fed23c038600da29d51fb6a34b7c98aff826040516126109190613f5c565b60405180910390a1600660008381526020019081526020016000206040518060c00160405290816000820160009054906101000a900473ffffffffffffffffffffffffffffffffffffffff1673ffffffffffffffffffffffffffffffffffffffff1673ffffffffffffffffffffffffffffffffffffffff168152602001600182015481526020016002820160009054906101000a900460ff1615151515815260200160038201548152602001600482015481526020016005820160009054906101000a900460ff1615151515815250509050919050565b60007f01ffc9a7000000000000000000000000000000000000000000000000000000007bffffffffffffffffffffffffffffffffffffffffffffffffffffffff1916827bffffffffffffffffffffffffffffffffffffffffffffffffffffffff1916149050919050565b60008061275d836131d0565b9050600073ffffffffffffffffffffffffffffffffffffffff168173ffffffffffffffffffffffffffffffffffffffff16036127d057826040517f7e2732890000000000000000000000000000000000000000000000000000000081526004016127c79190613f5c565b60405180910390fd5b80915050919050565b60006004600083815260200190815260200160002060009054906101000a900473ffffffffffffffffffffffffffffffffffffffff169050919050565b600033905090565b61282b838383600161320d565b505050565b60008061283c846131d0565b9050600073ffffffffffffffffffffffffffffffffffffffff168373ffffffffffffffffffffffffffffffffffffffff161461287e5761287d8184866133d2565b5b600073ffffffffffffffffffffffffffffffffffffffff168173ffffffffffffffffffffffffffffffffffffffff161461290f576128c060008560008061320d565b6001600360008373ffffffffffffffffffffffffffffffffffffffff1673ffffffffffffffffffffffffffffffffffffffff168152602001908152602001600020600082825403925050819055505b600073ffffffffffffffffffffffffffffffffffffffff168573ffffffffffffffffffffffffffffffffffffffff1614612992576001600360008773ffffffffffffffffffffffffffffffffffffffff1673ffffffffffffffffffffffffffffffffffffffff168152602001908152602001600020600082825401925050819055505b846002600086815260200190815260200160002060006101000a81548173ffffffffffffffffffffffffffffffffffffffff021916908373ffffffffffffffffffffffffffffffffffffffff160217905550838573ffffffffffffffffffffffffffffffffffffffff168273ffffffffffffffffffffffffffffffffffffffff167fddf252ad1be2c89b69c2b068fc378daa952ba7f163c4a11628f55a4df523b3ef60405160405180910390a4809150509392505050565b612a5681600854613496565b6040518060c001604052808273ffffffffffffffffffffffffffffffffffffffff168152602001600854815260200160001515815260200160008152602001600081526020016000151581525060066000600854815260200190815260200160002060008201518160000160006101000a81548173ffffffffffffffffffffffffffffffffffffffff021916908373ffffffffffffffffffffffffffffffffffffffff1602179055506020820151816001015560408201518160020160006101000a81548160ff021916908315150217905550606082015181600301556080820151816004015560a08201518160050160006101000a81548160ff02191690831515021790555090505060086000815480929190612b7390614305565b9190505550612bb96040518060400160405280601081526020017f546f74616c20686f757365733a202573000000000000000000000000000000008152506008546134b4565b50565b612c548282604051602401612bd29291906149f9565b6040516020818303038152906040527f319af333000000000000000000000000000000000000000000000000000000007bffffffffffffffffffffffffffffffffffffffffffffffffffffffff19166020820180517bffffffffffffffffffffffffffffffffffffffffffffffffffffffff8381831617835250505050613550565b5050565b600073ffffffffffffffffffffffffffffffffffffffff168273ffffffffffffffffffffffffffffffffffffffff1603612cc957816040517f5b08ba18000000000000000000000000000000000000000000000000000000008152600401612cc09190613b3e565b60405180910390fd5b80600560008573ffffffffffffffffffffffffffffffffffffffff1673ffffffffffffffffffffffffffffffffffffffff16815260200190815260200160002060008473ffffffffffffffffffffffffffffffffffffffff1673ffffffffffffffffffffffffffffffffffffffff16815260200190815260200160002060006101000a81548160ff0219169083151502179055508173ffffffffffffffffffffffffffffffffffffffff168373ffffffffffffffffffffffffffffffffffffffff167f17307eab39ab6107e8899845ad3d59bd9653f200f220920489ca2b5937696c3183604051612dba91906139cd565b60405180910390a3505050565b600073ffffffffffffffffffffffffffffffffffffffff168273ffffffffffffffffffffffffffffffffffffffff1603612e395760006040517f64a0ae92000000000000000000000000000000000000000000000000000000008152600401612e309190613b3e565b60405180910390fd5b6000612e4783836000612830565b9050600073ffffffffffffffffffffffffffffffffffffffff168173ffffffffffffffffffffffffffffffffffffffff1603612eba57816040517f7e273289000000000000000000000000000000000000000000000000000000008152600401612eb19190613f5c565b60405180910390fd5b8373ffffffffffffffffffffffffffffffffffffffff168173ffffffffffffffffffffffffffffffffffffffff1614612f2e578382826040517f64283d7b000000000000000000000000000000000000000000000000000000008152600401612f2593929190614270565b60405180910390fd5b50505050565b60008373ffffffffffffffffffffffffffffffffffffffff163b11156130e5578273ffffffffffffffffffffffffffffffffffffffff1663150b7a02612f78612816565b8685856040518563ffffffff1660e01b8152600401612f9a9493929190614a7e565b6020604051808303816000875af1925050508015612fd657506040513d601f19601f82011682018060405250810190612fd39190614adf565b60015b61305a573d8060008114613006576040519150601f19603f3d011682016040523d82523d6000602084013e61300b565b606091505b50600081510361305257836040517f64a0ae920000000000000000000000000000000000000000000000000000000081526004016130499190613b3e565b60405180910390fd5b805181602001fd5b63150b7a0260e01b7bffffffffffffffffffffffffffffffffffffffffffffffffffffffff1916817bffffffffffffffffffffffffffffffffffffffffffffffffffffffff1916146130e357836040517f64a0ae920000000000000000000000000000000000000000000000000000000081526004016130da9190613b3e565b60405180910390fd5b505b50505050565b606060405180602001604052806000815250905090565b6060600060016131118461356a565b01905060008167ffffffffffffffff8111156131305761312f614022565b5b6040519080825280601f01601f1916602001820160405280156131625781602001600182028036833780820191505090505b509050600082602001820190505b6001156131c5578080600190039150507f3031323334353637383961626364656600000000000000000000000000000000600a86061a8153600a85816131b9576131b8614957565b5b04945060008503613170575b819350505050919050565b60006002600083815260200190815260200160002060009054906101000a900473ffffffffffffffffffffffffffffffffffffffff169050919050565b80806132465750600073ffffffffffffffffffffffffffffffffffffffff168273ffffffffffffffffffffffffffffffffffffffff1614155b1561337a57600061325684612751565b9050600073ffffffffffffffffffffffffffffffffffffffff168373ffffffffffffffffffffffffffffffffffffffff16141580156132c157508273ffffffffffffffffffffffffffffffffffffffff168173ffffffffffffffffffffffffffffffffffffffff1614155b80156132d457506132d28184611e96565b155b1561331657826040517fa9fbf51f00000000000000000000000000000000000000000000000000000000815260040161330d9190613b3e565b60405180910390fd5b811561337857838573ffffffffffffffffffffffffffffffffffffffff168273ffffffffffffffffffffffffffffffffffffffff167f8c5be1e5ebec7d5bd14f71427d1e84f3dd0314c0f7b2291e5b200ac8c7c3b92560405160405180910390a45b505b836004600085815260200190815260200160002060006101000a81548173ffffffffffffffffffffffffffffffffffffffff021916908373ffffffffffffffffffffffffffffffffffffffff16021790555050505050565b6133dd8383836136bd565b61349157600073ffffffffffffffffffffffffffffffffffffffff168373ffffffffffffffffffffffffffffffffffffffff160361345257806040517f7e2732890000000000000000000000000000000000000000000000000000000081526004016134499190613f5c565b60405180910390fd5b81816040517f177e802f000000000000000000000000000000000000000000000000000000008152600401613488929190614b0c565b60405180910390fd5b505050565b6134b082826040518060200160405280600081525061377e565b5050565b61354c82826040516024016134ca929190614b35565b6040516020818303038152906040527fb60e72cc000000000000000000000000000000000000000000000000000000007bffffffffffffffffffffffffffffffffffffffffffffffffffffffff19166020820180517bffffffffffffffffffffffffffffffffffffffffffffffffffffffff8381831617835250505050613550565b5050565b6135678161355f61379a6137bb565b63ffffffff16565b50565b600080600090507a184f03e93ff9f4daa797ed6e38ed64bf6a1f01000000000000000083106135c8577a184f03e93ff9f4daa797ed6e38ed64bf6a1f01000000000000000083816135be576135bd614957565b5b0492506040810190505b6d04ee2d6d415b85acef81000000008310613605576d04ee2d6d415b85acef810000000083816135fb576135fa614957565b5b0492506020810190505b662386f26fc10000831061363457662386f26fc10000838161362a57613629614957565b5b0492506010810190505b6305f5e100831061365d576305f5e100838161365357613652614957565b5b0492506008810190505b612710831061368257612710838161367857613677614957565b5b0492506004810190505b606483106136a5576064838161369b5761369a614957565b5b0492506002810190505b600a83106136b4576001810190505b80915050919050565b60008073ffffffffffffffffffffffffffffffffffffffff168373ffffffffffffffffffffffffffffffffffffffff161415801561377557508273ffffffffffffffffffffffffffffffffffffffff168473ffffffffffffffffffffffffffffffffffffffff16148061373657506137358484611e96565b5b8061377457508273ffffffffffffffffffffffffffffffffffffffff1661375c836127d9565b73ffffffffffffffffffffffffffffffffffffffff16145b5b90509392505050565b61378883836137c6565b6137956000848484612f34565b505050565b60006a636f6e736f6c652e6c6f679050600080835160208501845afa505050565b61390f819050919050565b600073ffffffffffffffffffffffffffffffffffffffff168273ffffffffffffffffffffffffffffffffffffffff16036138385760006040517f64a0ae9200000000000000000000000000000000000000000000000000000000815260040161382f9190613b3e565b60405180910390fd5b600061384683836000612830565b9050600073ffffffffffffffffffffffffffffffffffffffff168173ffffffffffffffffffffffffffffffffffffffff16146138ba5760006040517f73c6ac6e0000000000000000000000000000000000000000000000000000000081526004016138b19190613b3e565b60405180910390fd5b505050565b6040518060c00160405280600073ffffffffffffffffffffffffffffffffffffffff1681526020016000815260200160001515815260200160008152602001600081526020016000151581525090565b613917614b65565b565b6000604051905090565b600080fd5b600080fd5b60007fffffffff0000000000000000000000000000000000000000000000000000000082169050919050565b6139628161392d565b811461396d57600080fd5b50565b60008135905061397f81613959565b92915050565b60006020828403121561399b5761399a613923565b5b60006139a984828501613970565b91505092915050565b60008115159050919050565b6139c7816139b2565b82525050565b60006020820190506139e260008301846139be565b92915050565b600081519050919050565b600082825260208201905092915050565b60005b83811015613a22578082015181840152602081019050613a07565b60008484015250505050565b6000601f19601f8301169050919050565b6000613a4a826139e8565b613a5481856139f3565b9350613a64818560208601613a04565b613a6d81613a2e565b840191505092915050565b60006020820190508181036000830152613a928184613a3f565b905092915050565b6000819050919050565b613aad81613a9a565b8114613ab857600080fd5b50565b600081359050613aca81613aa4565b92915050565b600060208284031215613ae657613ae5613923565b5b6000613af484828501613abb565b91505092915050565b600073ffffffffffffffffffffffffffffffffffffffff82169050919050565b6000613b2882613afd565b9050919050565b613b3881613b1d565b82525050565b6000602082019050613b536000830184613b2f565b92915050565b613b6281613b1d565b8114613b6d57600080fd5b50565b600081359050613b7f81613b59565b92915050565b60008060408385031215613b9c57613b9b613923565b5b6000613baa85828601613b70565b9250506020613bbb85828601613abb565b9150509250929050565b600080600060608486031215613bde57613bdd613923565b5b6000613bec86828701613b70565b9350506020613bfd86828701613b70565b9250506040613c0e86828701613abb565b9150509250925092565b600081519050919050565b600082825260208201905092915050565b6000819050602082019050919050565b613c4d81613b1d565b82525050565b613c5c81613a9a565b82525050565b613c6b816139b2565b82525050565b60c082016000820151613c876000850182613c44565b506020820151613c9a6020850182613c53565b506040820151613cad6040850182613c62565b506060820151613cc06060850182613c53565b506080820151613cd36080850182613c53565b5060a0820151613ce660a0850182613c62565b50505050565b6000613cf88383613c71565b60c08301905092915050565b6000602082019050919050565b6000613d1c82613c18565b613d268185613c23565b9350613d3183613c34565b8060005b83811015613d62578151613d498882613cec565b9750613d5483613d04565b925050600181019050613d35565b5085935050505092915050565b60006020820190508181036000830152613d898184613d11565b905092915050565b600060208284031215613da757613da6613923565b5b6000613db584828501613b70565b91505092915050565b613dc7816139b2565b8114613dd257600080fd5b50565b600081359050613de481613dbe565b92915050565b600080600060608486031215613e0357613e02613923565b5b6000613e1186828701613abb565b9350506020613e2286828701613abb565b9250506040613e3386828701613dd5565b9150509250925092565b60c082016000820151613e536000850182613c44565b506020820151613e666020850182613c53565b506040820151613e796040850182613c62565b506060820151613e8c6060850182613c53565b506080820151613e9f6080850182613c53565b5060a0820151613eb260a0850182613c62565b50505050565b600060c082019050613ecd6000830184613e3d565b92915050565b6000819050919050565b6000613ef8613ef3613eee84613afd565b613ed3565b613afd565b9050919050565b6000613f0a82613edd565b9050919050565b6000613f1c82613eff565b9050919050565b613f2c81613f11565b82525050565b6000602082019050613f476000830184613f23565b92915050565b613f5681613a9a565b82525050565b6000602082019050613f716000830184613f4d565b92915050565b60008060408385031215613f8e57613f8d613923565b5b6000613f9c85828601613b70565b9250506020613fad85828601613dd5565b9150509250929050565b600060c082019050613fcc6000830189613b2f565b613fd96020830188613f4d565b613fe660408301876139be565b613ff36060830186613f4d565b6140006080830185613f4d565b61400d60a08301846139be565b979650505050505050565b600080fd5b600080fd5b7f4e487b7100000000000000000000000000000000000000000000000000000000600052604160045260246000fd5b61405a82613a2e565b810181811067ffffffffffffffff8211171561407957614078614022565b5b80604052505050565b600061408c613919565b90506140988282614051565b919050565b600067ffffffffffffffff8211156140b8576140b7614022565b5b6140c182613a2e565b9050602081019050919050565b82818337600083830152505050565b60006140f06140eb8461409d565b614082565b90508281526020810184848401111561410c5761410b61401d565b5b6141178482856140ce565b509392505050565b600082601f83011261413457614133614018565b5b81356141448482602086016140dd565b91505092915050565b6000806000806080858703121561416757614166613923565b5b600061417587828801613b70565b945050602061418687828801613b70565b935050604061419787828801613abb565b925050606085013567ffffffffffffffff8111156141b8576141b7613928565b5b6141c48782880161411f565b91505092959194509250565b600080604083850312156141e7576141e6613923565b5b60006141f585828601613b70565b925050602061420685828601613b70565b9150509250929050565b7f4e487b7100000000000000000000000000000000000000000000000000000000600052602260045260246000fd5b6000600282049050600182168061425757607f821691505b60208210810361426a57614269614210565b5b50919050565b60006060820190506142856000830186613b2f565b6142926020830185613f4d565b61429f6040830184613b2f565b949350505050565b7f4e487b7100000000000000000000000000000000000000000000000000000000600052603260045260246000fd5b7f4e487b7100000000000000000000000000000000000000000000000000000000600052601160045260246000fd5b600061431082613a9a565b91507fffffffffffffffffffffffffffffffffffffffffffffffffffffffffffffffff8203614342576143416142d6565b5b600182019050919050565b7f596f7520617265206e6f7420746865206f776e6572206f66207468697320686f60008201527f7573650000000000000000000000000000000000000000000000000000000000602082015250565b60006143a96023836139f3565b91506143b48261434d565b604082019050919050565b600060208201905081810360008301526143d88161439c565b9050919050565b7f486f75736520646f6573206e6f74206578697374000000000000000000000000600082015250565b60006144156014836139f3565b9150614420826143df565b602082019050919050565b6000602082019050818103600083015261444481614408565b9050919050565b7f5072696365206d7573742062652067726561746572207468616e203000000000600082015250565b6000614481601c836139f3565b915061448c8261444b565b602082019050919050565b600060208201905081810360008301526144b081614474565b9050919050565b7f486f75736520697320616c7265616479206c6973746564000000000000000000600082015250565b60006144ed6017836139f3565b91506144f8826144b7565b602082019050919050565b6000602082019050818103600083015261451c816144e0565b9050919050565b60006060820190506145386000830186613f4d565b6145456020830185613f4d565b6145526040830184613b2f565b949350505050565b7f5573657220616c726561647920696e697469616c697a65640000000000000000600082015250565b60006145906018836139f3565b915061459b8261455a565b602082019050919050565b600060208201905081810360008301526145bf81614583565b9050919050565b7f486f757365206973206e6f74206c697374656400000000000000000000000000600082015250565b60006145fc6013836139f3565b9150614607826145c6565b602082019050919050565b6000602082019050818103600083015261462b816145ef565b9050919050565b7f486f75736520707269636520616e64206c6973746564537461727454696d657360008201527f74616d70206e65656420746f20626520626967676572207468616e2030000000602082015250565b600061468e603d836139f3565b915061469982614632565b604082019050919050565b600060208201905081810360008301526146bd81614681565b9050919050565b7f596f752061726520746865206f776e6572206f66207468697320686f75736500600082015250565b60006146fa601f836139f3565b9150614705826146c4565b602082019050919050565b60006020820190508181036000830152614729816146ed565b9050919050565b60008151905061473f81613aa4565b92915050565b60006020828403121561475b5761475a613923565b5b600061476984828501614730565b91505092915050565b7f496e73756666696369656e742045524332302062616c616e6365000000000000600082015250565b60006147a8601a836139f3565b91506147b382614772565b602082019050919050565b600060208201905081810360008301526147d78161479b565b9050919050565b60006060820190506147f36000830186613b2f565b6148006020830185613b2f565b61480d6040830184613f4d565b949350505050565b60008151905061482481613dbe565b92915050565b6000602082840312156148405761483f613923565b5b600061484e84828501614815565b91505092915050565b600081905092915050565b600061486d826139e8565b6148778185614857565b9350614887818560208601613a04565b80840191505092915050565b600061489f8285614862565b91506148ab8284614862565b91508190509392505050565b7f496e73756666696369656e742066756e64730000000000000000000000000000600082015250565b60006148ed6012836139f3565b91506148f8826148b7565b602082019050919050565b6000602082019050818103600083015261491c816148e0565b9050919050565b600061492e82613a9a565b915061493983613a9a565b9250828203905081811115614951576149506142d6565b5b92915050565b7f4e487b7100000000000000000000000000000000000000000000000000000000600052601260045260246000fd5b600061499182613a9a565b915061499c83613a9a565b9250826149ac576149ab614957565b5b828204905092915050565b60006149c282613a9a565b91506149cd83613a9a565b92508282026149db81613a9a565b915082820484148315176149f2576149f16142d6565b5b5092915050565b60006040820190508181036000830152614a138185613a3f565b9050614a226020830184613b2f565b9392505050565b600081519050919050565b600082825260208201905092915050565b6000614a5082614a29565b614a5a8185614a34565b9350614a6a818560208601613a04565b614a7381613a2e565b840191505092915050565b6000608082019050614a936000830187613b2f565b614aa06020830186613b2f565b614aad6040830185613f4d565b8181036060830152614abf8184614a45565b905095945050505050565b600081519050614ad981613959565b92915050565b600060208284031215614af557614af4613923565b5b6000614b0384828501614aca565b91505092915050565b6000604082019050614b216000830185613b2f565b614b2e6020830184613f4d565b9392505050565b60006040820190508181036000830152614b4f8185613a3f565b9050614b5e6020830184613f4d565b9392505050565b7f4e487b7100000000000000000000000000000000000000000000000000000000600052605160045260246000fdfea26469706673582212206d233c5e96ddf8082b5a32172c2f0a98da818fffe2509acf563da9e8bcf62e1b64736f6c6343000814003360806040523480156200001157600080fd5b506040518060400160405280600781526020017f4d794552433230000000000000000000000000000000000000000000000000008152506040518060400160405280600381526020017f4d4532000000000000000000000000000000000000000000000000000000000081525081600390816200008f919062000324565b508060049081620000a1919062000324565b5050506200040b565b600081519050919050565b7f4e487b7100000000000000000000000000000000000000000000000000000000600052604160045260246000fd5b7f4e487b7100000000000000000000000000000000000000000000000000000000600052602260045260246000fd5b600060028204905060018216806200012c57607f821691505b602082108103620001425762000141620000e4565b5b50919050565b60008190508160005260206000209050919050565b60006020601f8301049050919050565b600082821b905092915050565b600060088302620001ac7fffffffffffffffffffffffffffffffffffffffffffffffffffffffffffffffff826200016d565b620001b886836200016d565b95508019841693508086168417925050509392505050565b6000819050919050565b6000819050919050565b600062000205620001ff620001f984620001d0565b620001da565b620001d0565b9050919050565b6000819050919050565b6200022183620001e4565b6200023962000230826200020c565b8484546200017a565b825550505050565b600090565b6200025062000241565b6200025d81848462000216565b505050565b5b8181101562000285576200027960008262000246565b60018101905062000263565b5050565b601f821115620002d4576200029e8162000148565b620002a9846200015d565b81016020851015620002b9578190505b620002d1620002c8856200015d565b83018262000262565b50505b505050565b600082821c905092915050565b6000620002f960001984600802620002d9565b1980831691505092915050565b6000620003148383620002e6565b9150826002028217905092915050565b6200032f82620000aa565b67ffffffffffffffff8111156200034b576200034a620000b5565b5b62000357825462000113565b6200036482828562000289565b600060209050601f8311600181146200039c576000841562000387578287015190505b62000393858262000306565b86555062000403565b601f198416620003ac8662000148565b60005b82811015620003d657848901518255600182019150602085019450602081019050620003af565b86831015620003f65784890151620003f2601f891682620002e6565b8355505b6001600288020188555050505b505050505050565b610fd9806200041b6000396000f3fe6080604052600436106100915760003560e01c8063313ce56711610059578063313ce5671461017057806370a082311461019b57806395d89b41146101d8578063a9059cbb14610203578063dd62ed3e1461024057610091565b806306fdde0314610096578063095ea7b3146100c157806318160ddd146100fe57806323b872dd1461012957806328dbf57f14610166575b600080fd5b3480156100a257600080fd5b506100ab61027d565b6040516100b89190610bcd565b60405180910390f35b3480156100cd57600080fd5b506100e860048036038101906100e39190610c88565b61030f565b6040516100f59190610ce3565b60405180910390f35b34801561010a57600080fd5b50610113610332565b6040516101209190610d0d565b60405180910390f35b34801561013557600080fd5b50610150600480360381019061014b9190610d28565b61033c565b60405161015d9190610ce3565b60405180910390f35b61016e61036b565b005b34801561017c57600080fd5b50610185610390565b6040516101929190610d97565b60405180910390f35b3480156101a757600080fd5b506101c260048036038101906101bd9190610db2565b610399565b6040516101cf9190610d0d565b60405180910390f35b3480156101e457600080fd5b506101ed6103e1565b6040516101fa9190610bcd565b60405180910390f35b34801561020f57600080fd5b5061022a60048036038101906102259190610c88565b610473565b6040516102379190610ce3565b60405180910390f35b34801561024c57600080fd5b5061026760048036038101906102629190610ddf565b610496565b6040516102749190610d0d565b60405180910390f35b60606003805461028c90610e4e565b80601f01602080910402602001604051908101604052809291908181526020018280546102b890610e4e565b80156103055780601f106102da57610100808354040283529160200191610305565b820191906000526020600020905b8154815290600101906020018083116102e857829003601f168201915b5050505050905090565b60008061031a61051d565b9050610327818585610525565b600191505092915050565b6000600254905090565b60008061034761051d565b9050610354858285610537565b61035f8585856105cb565b60019150509392505050565b6000670de0b6b3a7640000346103819190610edd565b905061038d33826106bf565b50565b60006012905090565b60008060008373ffffffffffffffffffffffffffffffffffffffff1673ffffffffffffffffffffffffffffffffffffffff168152602001908152602001600020549050919050565b6060600480546103f090610e4e565b80601f016020809104026020016040519081016040528092919081815260200182805461041c90610e4e565b80156104695780601f1061043e57610100808354040283529160200191610469565b820191906000526020600020905b81548152906001019060200180831161044c57829003601f168201915b5050505050905090565b60008061047e61051d565b905061048b8185856105cb565b600191505092915050565b6000600160008473ffffffffffffffffffffffffffffffffffffffff1673ffffffffffffffffffffffffffffffffffffffff16815260200190815260200160002060008373ffffffffffffffffffffffffffffffffffffffff1673ffffffffffffffffffffffffffffffffffffffff16815260200190815260200160002054905092915050565b600033905090565b6105328383836001610741565b505050565b60006105438484610496565b90507fffffffffffffffffffffffffffffffffffffffffffffffffffffffffffffffff81146105c557818110156105b5578281836040517ffb8f41b20000000000000000000000000000000000000000000000000000000081526004016105ac93929190610f1d565b60405180910390fd5b6105c484848484036000610741565b5b50505050565b600073ffffffffffffffffffffffffffffffffffffffff168373ffffffffffffffffffffffffffffffffffffffff160361063d5760006040517f96c6fd1e0000000000000000000000000000000000000000000000000000000081526004016106349190610f54565b60405180910390fd5b600073ffffffffffffffffffffffffffffffffffffffff168273ffffffffffffffffffffffffffffffffffffffff16036106af5760006040517fec442f050000000000000000000000000000000000000000000000000000000081526004016106a69190610f54565b60405180910390fd5b6106ba838383610918565b505050565b600073ffffffffffffffffffffffffffffffffffffffff168273ffffffffffffffffffffffffffffffffffffffff16036107315760006040517fec442f050000000000000000000000000000000000000000000000000000000081526004016107289190610f54565b60405180910390fd5b61073d60008383610918565b5050565b600073ffffffffffffffffffffffffffffffffffffffff168473ffffffffffffffffffffffffffffffffffffffff16036107b35760006040517fe602df050000000000000000000000000000000000000000000000000000000081526004016107aa9190610f54565b60405180910390fd5b600073ffffffffffffffffffffffffffffffffffffffff168373ffffffffffffffffffffffffffffffffffffffff16036108255760006040517f94280d6200000000000000000000000000000000000000000000000000000000815260040161081c9190610f54565b60405180910390fd5b81600160008673ffffffffffffffffffffffffffffffffffffffff1673ffffffffffffffffffffffffffffffffffffffff16815260200190815260200160002060008573ffffffffffffffffffffffffffffffffffffffff1673ffffffffffffffffffffffffffffffffffffffff168152602001908152602001600020819055508015610912578273ffffffffffffffffffffffffffffffffffffffff168473ffffffffffffffffffffffffffffffffffffffff167f8c5be1e5ebec7d5bd14f71427d1e84f3dd0314c0f7b2291e5b200ac8c7c3b925846040516109099190610d0d565b60405180910390a35b50505050565b600073ffffffffffffffffffffffffffffffffffffffff168373ffffffffffffffffffffffffffffffffffffffff160361096a57806002600082825461095e9190610f6f565b92505081905550610a3d565b60008060008573ffffffffffffffffffffffffffffffffffffffff1673ffffffffffffffffffffffffffffffffffffffff168152602001908152602001600020549050818110156109f6578381836040517fe450d38c0000000000000000000000000000000000000000000000000000000081526004016109ed93929190610f1d565b60405180910390fd5b8181036000808673ffffffffffffffffffffffffffffffffffffffff1673ffffffffffffffffffffffffffffffffffffffff16815260200190815260200160002081905550505b600073ffffffffffffffffffffffffffffffffffffffff168273ffffffffffffffffffffffffffffffffffffffff1603610a865780600260008282540392505081905550610ad3565b806000808473ffffffffffffffffffffffffffffffffffffffff1673ffffffffffffffffffffffffffffffffffffffff168152602001908152602001600020600082825401925050819055505b8173ffffffffffffffffffffffffffffffffffffffff168373ffffffffffffffffffffffffffffffffffffffff167fddf252ad1be2c89b69c2b068fc378daa952ba7f163c4a11628f55a4df523b3ef83604051610b309190610d0d565b60405180910390a3505050565b600081519050919050565b600082825260208201905092915050565b60005b83811015610b77578082015181840152602081019050610b5c565b60008484015250505050565b6000601f19601f8301169050919050565b6000610b9f82610b3d565b610ba98185610b48565b9350610bb9818560208601610b59565b610bc281610b83565b840191505092915050565b60006020820190508181036000830152610be78184610b94565b905092915050565b600080fd5b600073ffffffffffffffffffffffffffffffffffffffff82169050919050565b6000610c1f82610bf4565b9050919050565b610c2f81610c14565b8114610c3a57600080fd5b50565b600081359050610c4c81610c26565b92915050565b6000819050919050565b610c6581610c52565b8114610c7057600080fd5b50565b600081359050610c8281610c5c565b92915050565b60008060408385031215610c9f57610c9e610bef565b5b6000610cad85828601610c3d565b9250506020610cbe85828601610c73565b9150509250929050565b60008115159050919050565b610cdd81610cc8565b82525050565b6000602082019050610cf86000830184610cd4565b92915050565b610d0781610c52565b82525050565b6000602082019050610d226000830184610cfe565b92915050565b600080600060608486031215610d4157610d40610bef565b5b6000610d4f86828701610c3d565b9350506020610d6086828701610c3d565b9250506040610d7186828701610c73565b9150509250925092565b600060ff82169050919050565b610d9181610d7b565b82525050565b6000602082019050610dac6000830184610d88565b92915050565b600060208284031215610dc857610dc7610bef565b5b6000610dd684828501610c3d565b91505092915050565b60008060408385031215610df657610df5610bef565b5b6000610e0485828601610c3d565b9250506020610e1585828601610c3d565b9150509250929050565b7f4e487b7100000000000000000000000000000000000000000000000000000000600052602260045260246000fd5b60006002820490506001821680610e6657607f821691505b602082108103610e7957610e78610e1f565b5b50919050565b7f4e487b7100000000000000000000000000000000000000000000000000000000600052601260045260246000fd5b7f4e487b7100000000000000000000000000000000000000000000000000000000600052601160045260246000fd5b6000610ee882610c52565b9150610ef383610c52565b925082610f0357610f02610e7f565b5b828204905092915050565b610f1781610c14565b82525050565b6000606082019050610f326000830186610f0e565b610f3f6020830185610cfe565b610f4c6040830184610cfe565b949350505050565b6000602082019050610f696000830184610f0e565b92915050565b6000610f7a82610c52565b9150610f8583610c52565b9250828201905080821115610f9d57610f9c610eae565b5b9291505056fea264697066735822122087441b9fc97e7d4331048faa666bfa96b9c1b883a5fe9b30ff97500cf07a2d8f64736f6c63430008140033",
    "linkReferences": {},
    "deployedLinkReferences": {}
}