{
  "_format": "hh-sol-artifact-1",
  "contractName": "MyERC20",
  "sourceName": "contracts/MyERC20.sol",
  "abi": [
    {
      "inputs": [],
      "stateMutability": "nonpayable",
      "type": "constructor"
    },
    {
      "inputs": [
        {
          "internalType": "address",
          "name": "spender",
          "type": "address"
        },
        {
          "internalType": "uint256",
          "name": "allowance",
          "type": "uint256"
        },
        {
          "internalType": "uint256",
          "name": "needed",
          "type": "uint256"
        }
      ],
      "name": "ERC20InsufficientAllowance",
      "type": "error"
    },
    {
      "inputs": [
        {
          "internalType": "address",
          "name": "sender",
          "type": "address"
        },
        {
          "internalType": "uint256",
          "name": "balance",
          "type": "uint256"
        },
        {
          "internalType": "uint256",
          "name": "needed",
          "type": "uint256"
        }
      ],
      "name": "ERC20InsufficientBalance",
      "type": "error"
    },
    {
      "inputs": [
        {
          "internalType": "address",
          "name": "approver",
          "type": "address"
        }
      ],
      "name": "ERC20InvalidApprover",
      "type": "error"
    },
    {
      "inputs": [
        {
          "internalType": "address",
          "name": "receiver",
          "type": "address"
        }
      ],
      "name": "ERC20InvalidReceiver",
      "type": "error"
    },
    {
      "inputs": [
        {
          "internalType": "address",
          "name": "sender",
          "type": "address"
        }
      ],
      "name": "ERC20InvalidSender",
      "type": "error"
    },
    {
      "inputs": [
        {
          "internalType": "address",
          "name": "spender",
          "type": "address"
        }
      ],
      "name": "ERC20InvalidSpender",
      "type": "error"
    },
    {
      "anonymous": false,
      "inputs": [
        {
          "indexed": true,
          "internalType": "address",
          "name": "owner",
          "type": "address"
        },
        {
          "indexed": true,
          "internalType": "address",
          "name": "spender",
          "type": "address"
        },
        {
          "indexed": false,
          "internalType": "uint256",
          "name": "value",
          "type": "uint256"
        }
      ],
      "name": "Approval",
      "type": "event"
    },
    {
      "anonymous": false,
      "inputs": [
        {
          "indexed": true,
          "internalType": "address",
          "name": "from",
          "type": "address"
        },
        {
          "indexed": true,
          "internalType": "address",
          "name": "to",
          "type": "address"
        },
        {
          "indexed": false,
          "internalType": "uint256",
          "name": "value",
          "type": "uint256"
        }
      ],
      "name": "Transfer",
      "type": "event"
    },
    {
      "inputs": [
        {
          "internalType": "address",
          "name": "owner",
          "type": "address"
        },
        {
          "internalType": "address",
          "name": "spender",
          "type": "address"
        }
      ],
      "name": "allowance",
      "outputs": [
        {
          "internalType": "uint256",
          "name": "",
          "type": "uint256"
        }
      ],
      "stateMutability": "view",
      "type": "function"
    },
    {
      "inputs": [
        {
          "internalType": "address",
          "name": "spender",
          "type": "address"
        },
        {
          "internalType": "uint256",
          "name": "value",
          "type": "uint256"
        }
      ],
      "name": "approve",
      "outputs": [
        {
          "internalType": "bool",
          "name": "",
          "type": "bool"
        }
      ],
      "stateMutability": "nonpayable",
      "type": "function"
    },
    {
      "inputs": [
        {
          "internalType": "address",
          "name": "account",
          "type": "address"
        }
      ],
      "name": "balanceOf",
      "outputs": [
        {
          "internalType": "uint256",
          "name": "",
          "type": "uint256"
        }
      ],
      "stateMutability": "view",
      "type": "function"
    },
    {
      "inputs": [],
      "name": "decimals",
      "outputs": [
        {
          "internalType": "uint8",
          "name": "",
          "type": "uint8"
        }
      ],
      "stateMutability": "view",
      "type": "function"
    },
    {
      "inputs": [],
      "name": "exchangeERC20",
      "outputs": [],
      "stateMutability": "payable",
      "type": "function"
    },
    {
      "inputs": [],
      "name": "name",
      "outputs": [
        {
          "internalType": "string",
          "name": "",
          "type": "string"
        }
      ],
      "stateMutability": "view",
      "type": "function"
    },
    {
      "inputs": [],
      "name": "symbol",
      "outputs": [
        {
          "internalType": "string",
          "name": "",
          "type": "string"
        }
      ],
      "stateMutability": "view",
      "type": "function"
    },
    {
      "inputs": [],
      "name": "totalSupply",
      "outputs": [
        {
          "internalType": "uint256",
          "name": "",
          "type": "uint256"
        }
      ],
      "stateMutability": "view",
      "type": "function"
    },
    {
      "inputs": [
        {
          "internalType": "address",
          "name": "to",
          "type": "address"
        },
        {
          "internalType": "uint256",
          "name": "value",
          "type": "uint256"
        }
      ],
      "name": "transfer",
      "outputs": [
        {
          "internalType": "bool",
          "name": "",
          "type": "bool"
        }
      ],
      "stateMutability": "nonpayable",
      "type": "function"
    },
    {
      "inputs": [
        {
          "internalType": "address",
          "name": "from",
          "type": "address"
        },
        {
          "internalType": "address",
          "name": "to",
          "type": "address"
        },
        {
          "internalType": "uint256",
          "name": "value",
          "type": "uint256"
        }
      ],
      "name": "transferFrom",
      "outputs": [
        {
          "internalType": "bool",
          "name": "",
          "type": "bool"
        }
      ],
      "stateMutability": "nonpayable",
      "type": "function"
    }
  ],
  "bytecode": "0x60806040523480156200001157600080fd5b506040518060400160405280600781526020017f4d794552433230000000000000000000000000000000000000000000000000008152506040518060400160405280600381526020017f4d4532000000000000000000000000000000000000000000000000000000000081525081600390816200008f919062000324565b508060049081620000a1919062000324565b5050506200040b565b600081519050919050565b7f4e487b7100000000000000000000000000000000000000000000000000000000600052604160045260246000fd5b7f4e487b7100000000000000000000000000000000000000000000000000000000600052602260045260246000fd5b600060028204905060018216806200012c57607f821691505b602082108103620001425762000141620000e4565b5b50919050565b60008190508160005260206000209050919050565b60006020601f8301049050919050565b600082821b905092915050565b600060088302620001ac7fffffffffffffffffffffffffffffffffffffffffffffffffffffffffffffffff826200016d565b620001b886836200016d565b95508019841693508086168417925050509392505050565b6000819050919050565b6000819050919050565b600062000205620001ff620001f984620001d0565b620001da565b620001d0565b9050919050565b6000819050919050565b6200022183620001e4565b6200023962000230826200020c565b8484546200017a565b825550505050565b600090565b6200025062000241565b6200025d81848462000216565b505050565b5b8181101562000285576200027960008262000246565b60018101905062000263565b5050565b601f821115620002d4576200029e8162000148565b620002a9846200015d565b81016020851015620002b9578190505b620002d1620002c8856200015d565b83018262000262565b50505b505050565b600082821c905092915050565b6000620002f960001984600802620002d9565b1980831691505092915050565b6000620003148383620002e6565b9150826002028217905092915050565b6200032f82620000aa565b67ffffffffffffffff8111156200034b576200034a620000b5565b5b62000357825462000113565b6200036482828562000289565b600060209050601f8311600181146200039c576000841562000387578287015190505b62000393858262000306565b86555062000403565b601f198416620003ac8662000148565b60005b82811015620003d657848901518255600182019150602085019450602081019050620003af565b86831015620003f65784890151620003f2601f891682620002e6565b8355505b6001600288020188555050505b505050505050565b610fd9806200041b6000396000f3fe6080604052600436106100915760003560e01c8063313ce56711610059578063313ce5671461017057806370a082311461019b57806395d89b41146101d8578063a9059cbb14610203578063dd62ed3e1461024057610091565b806306fdde0314610096578063095ea7b3146100c157806318160ddd146100fe57806323b872dd1461012957806328dbf57f14610166575b600080fd5b3480156100a257600080fd5b506100ab61027d565b6040516100b89190610bcd565b60405180910390f35b3480156100cd57600080fd5b506100e860048036038101906100e39190610c88565b61030f565b6040516100f59190610ce3565b60405180910390f35b34801561010a57600080fd5b50610113610332565b6040516101209190610d0d565b60405180910390f35b34801561013557600080fd5b50610150600480360381019061014b9190610d28565b61033c565b60405161015d9190610ce3565b60405180910390f35b61016e61036b565b005b34801561017c57600080fd5b50610185610390565b6040516101929190610d97565b60405180910390f35b3480156101a757600080fd5b506101c260048036038101906101bd9190610db2565b610399565b6040516101cf9190610d0d565b60405180910390f35b3480156101e457600080fd5b506101ed6103e1565b6040516101fa9190610bcd565b60405180910390f35b34801561020f57600080fd5b5061022a60048036038101906102259190610c88565b610473565b6040516102379190610ce3565b60405180910390f35b34801561024c57600080fd5b5061026760048036038101906102629190610ddf565b610496565b6040516102749190610d0d565b60405180910390f35b60606003805461028c90610e4e565b80601f01602080910402602001604051908101604052809291908181526020018280546102b890610e4e565b80156103055780601f106102da57610100808354040283529160200191610305565b820191906000526020600020905b8154815290600101906020018083116102e857829003601f168201915b5050505050905090565b60008061031a61051d565b9050610327818585610525565b600191505092915050565b6000600254905090565b60008061034761051d565b9050610354858285610537565b61035f8585856105cb565b60019150509392505050565b6000670de0b6b3a7640000346103819190610edd565b905061038d33826106bf565b50565b60006012905090565b60008060008373ffffffffffffffffffffffffffffffffffffffff1673ffffffffffffffffffffffffffffffffffffffff168152602001908152602001600020549050919050565b6060600480546103f090610e4e565b80601f016020809104026020016040519081016040528092919081815260200182805461041c90610e4e565b80156104695780601f1061043e57610100808354040283529160200191610469565b820191906000526020600020905b81548152906001019060200180831161044c57829003601f168201915b5050505050905090565b60008061047e61051d565b905061048b8185856105cb565b600191505092915050565b6000600160008473ffffffffffffffffffffffffffffffffffffffff1673ffffffffffffffffffffffffffffffffffffffff16815260200190815260200160002060008373ffffffffffffffffffffffffffffffffffffffff1673ffffffffffffffffffffffffffffffffffffffff16815260200190815260200160002054905092915050565b600033905090565b6105328383836001610741565b505050565b60006105438484610496565b90507fffffffffffffffffffffffffffffffffffffffffffffffffffffffffffffffff81146105c557818110156105b5578281836040517ffb8f41b20000000000000000000000000000000000000000000000000000000081526004016105ac93929190610f1d565b60405180910390fd5b6105c484848484036000610741565b5b50505050565b600073ffffffffffffffffffffffffffffffffffffffff168373ffffffffffffffffffffffffffffffffffffffff160361063d5760006040517f96c6fd1e0000000000000000000000000000000000000000000000000000000081526004016106349190610f54565b60405180910390fd5b600073ffffffffffffffffffffffffffffffffffffffff168273ffffffffffffffffffffffffffffffffffffffff16036106af5760006040517fec442f050000000000000000000000000000000000000000000000000000000081526004016106a69190610f54565b60405180910390fd5b6106ba838383610918565b505050565b600073ffffffffffffffffffffffffffffffffffffffff168273ffffffffffffffffffffffffffffffffffffffff16036107315760006040517fec442f050000000000000000000000000000000000000000000000000000000081526004016107289190610f54565b60405180910390fd5b61073d60008383610918565b5050565b600073ffffffffffffffffffffffffffffffffffffffff168473ffffffffffffffffffffffffffffffffffffffff16036107b35760006040517fe602df050000000000000000000000000000000000000000000000000000000081526004016107aa9190610f54565b60405180910390fd5b600073ffffffffffffffffffffffffffffffffffffffff168373ffffffffffffffffffffffffffffffffffffffff16036108255760006040517f94280d6200000000000000000000000000000000000000000000000000000000815260040161081c9190610f54565b60405180910390fd5b81600160008673ffffffffffffffffffffffffffffffffffffffff1673ffffffffffffffffffffffffffffffffffffffff16815260200190815260200160002060008573ffffffffffffffffffffffffffffffffffffffff1673ffffffffffffffffffffffffffffffffffffffff168152602001908152602001600020819055508015610912578273ffffffffffffffffffffffffffffffffffffffff168473ffffffffffffffffffffffffffffffffffffffff167f8c5be1e5ebec7d5bd14f71427d1e84f3dd0314c0f7b2291e5b200ac8c7c3b925846040516109099190610d0d565b60405180910390a35b50505050565b600073ffffffffffffffffffffffffffffffffffffffff168373ffffffffffffffffffffffffffffffffffffffff160361096a57806002600082825461095e9190610f6f565b92505081905550610a3d565b60008060008573ffffffffffffffffffffffffffffffffffffffff1673ffffffffffffffffffffffffffffffffffffffff168152602001908152602001600020549050818110156109f6578381836040517fe450d38c0000000000000000000000000000000000000000000000000000000081526004016109ed93929190610f1d565b60405180910390fd5b8181036000808673ffffffffffffffffffffffffffffffffffffffff1673ffffffffffffffffffffffffffffffffffffffff16815260200190815260200160002081905550505b600073ffffffffffffffffffffffffffffffffffffffff168273ffffffffffffffffffffffffffffffffffffffff1603610a865780600260008282540392505081905550610ad3565b806000808473ffffffffffffffffffffffffffffffffffffffff1673ffffffffffffffffffffffffffffffffffffffff168152602001908152602001600020600082825401925050819055505b8173ffffffffffffffffffffffffffffffffffffffff168373ffffffffffffffffffffffffffffffffffffffff167fddf252ad1be2c89b69c2b068fc378daa952ba7f163c4a11628f55a4df523b3ef83604051610b309190610d0d565b60405180910390a3505050565b600081519050919050565b600082825260208201905092915050565b60005b83811015610b77578082015181840152602081019050610b5c565b60008484015250505050565b6000601f19601f8301169050919050565b6000610b9f82610b3d565b610ba98185610b48565b9350610bb9818560208601610b59565b610bc281610b83565b840191505092915050565b60006020820190508181036000830152610be78184610b94565b905092915050565b600080fd5b600073ffffffffffffffffffffffffffffffffffffffff82169050919050565b6000610c1f82610bf4565b9050919050565b610c2f81610c14565b8114610c3a57600080fd5b50565b600081359050610c4c81610c26565b92915050565b6000819050919050565b610c6581610c52565b8114610c7057600080fd5b50565b600081359050610c8281610c5c565b92915050565b60008060408385031215610c9f57610c9e610bef565b5b6000610cad85828601610c3d565b9250506020610cbe85828601610c73565b9150509250929050565b60008115159050919050565b610cdd81610cc8565b82525050565b6000602082019050610cf86000830184610cd4565b92915050565b610d0781610c52565b82525050565b6000602082019050610d226000830184610cfe565b92915050565b600080600060608486031215610d4157610d40610bef565b5b6000610d4f86828701610c3d565b9350506020610d6086828701610c3d565b9250506040610d7186828701610c73565b9150509250925092565b600060ff82169050919050565b610d9181610d7b565b82525050565b6000602082019050610dac6000830184610d88565b92915050565b600060208284031215610dc857610dc7610bef565b5b6000610dd684828501610c3d565b91505092915050565b60008060408385031215610df657610df5610bef565b5b6000610e0485828601610c3d565b9250506020610e1585828601610c3d565b9150509250929050565b7f4e487b7100000000000000000000000000000000000000000000000000000000600052602260045260246000fd5b60006002820490506001821680610e6657607f821691505b602082108103610e7957610e78610e1f565b5b50919050565b7f4e487b7100000000000000000000000000000000000000000000000000000000600052601260045260246000fd5b7f4e487b7100000000000000000000000000000000000000000000000000000000600052601160045260246000fd5b6000610ee882610c52565b9150610ef383610c52565b925082610f0357610f02610e7f565b5b828204905092915050565b610f1781610c14565b82525050565b6000606082019050610f326000830186610f0e565b610f3f6020830185610cfe565b610f4c6040830184610cfe565b949350505050565b6000602082019050610f696000830184610f0e565b92915050565b6000610f7a82610c52565b9150610f8583610c52565b9250828201905080821115610f9d57610f9c610eae565b5b9291505056fea264697066735822122087441b9fc97e7d4331048faa666bfa96b9c1b883a5fe9b30ff97500cf07a2d8f64736f6c63430008140033",
  "linkReferences": {},
  "deployedLinkReferences": {}
}